:020000041000EA
:1000000000B5324B212058609868022188439860DF
:10001000D860186158612E4B002199600221596106
:100020000121F02299502B49196001219960352056
:1000300000F044F80222904214D00621196600F024
:1000400034F8196E01211966002018661A6600F04E
:100050002CF8196E196E196E052000F02FF8012189
:100060000842F9D1002199601B49196000215960AB
:100070001A491B48016001219960EB211966A021F2
:10008000196600F012F800219960164914480160C1
:100090000121996001BC002800D000471248134993
:1000A000086003C880F30888084703B5996A0420EC
:1000B0000142FBD001200142F8D103BD02B5186610
:1000C0001866FFF7F2FF186E186E02BD00000240BE
:1000D000000000180000070000035F00212200005C
:1000E000F4000018222000A00001001008ED00E03C
:1000F00000000000000000000000000074B24E7A12
:1001000000200420F7010010C3010010C5010010F9
:10011000C1010010C1010010C1010010C101001097
:10012000C1010010C1010010C1010010C701001081
:10013000C1010010C1010010C9010010CB01001065
:10014000CD010010CD010010CD010010CD01001037
:10015000CD010010CD010010CD010010CD01001027
:10016000CD010010CD010010CD010010CD01001017
:10017000CD010010CD010010CD010010CD01001007
:10018000CD010010CD010010CD010010CD010010F7
:10019000CD010010CD010010CD010010CD010010E7
:1001A000CD010010CD010010CD010010CD010010D7
:1001B000CD010010CD010010CD010010CD010010C7
:1001C00000BE00BE00BE00BE00BE00BEEFF3058054
:1001D000103800BEF2EB887130C8001060C8001003
:1001E0003402001090A31AE700201F49086006C8D7
:1001F00081F3088810471D48006800282FD10DA4FE
:100200000ECC002902D000F012F8F9E71849194A7B
:10021000002000E001C19142FCD1174988471749ED
:1002200088471749884700BEFDE701C901C29A42C5
:10023000FBD3704760C80010C0000020141B0020D2
:10024000B4E200100000042000000420B4E200101A
:10025000001004200010042000000000704709482E
:1002600001F08AFF0047000008ED00E0000000D028
:10027000181B0020802A0020491F00105503001081
:10028000712000105756000006005250ABB3605367
:1002900028BA001006005250861C030238BA00101B
:1002A000060052505422A29D40BA00100500525040
:1002B000DE65F468B4E20010F8B5C0460448054BAA
:1002C00010B5834203D0044B002B00D0984710BDDB
:1002D000141B0020141B00200000000006480749E2
:1002E000091A8B10C90FC91810B5491003D0044B57
:1002F000002B00D0984710BD141B0020141B0020B9
:100300000000000010B5074C2378002B09D1FFF73F
:10031000D5FF054B002B02D0044800E000BF0123AD
:10032000237010BD201C00200000000000B9001048
:10033000054B10B5002B03D00449054800E000BF71
:10034000FFF7CCFF10BDC04600000000241C0020B9
:1003500000B90010F8B502F015FF06F0BDFC06F07C
:1003600065FD05F0BDFB012005F0ACFC06F086FC48
:1003700005F02CFF0021002006F066FB184806F06F
:100380006DFB06F08DFC06F0C3FC164C164F174EA5
:10039000174D05F01BFF0021002006F055FB2168DA
:1003A00038004B1C236006F059FB0023E25EF0236B
:1003B0000A211B02142006F06DF8FF2006F01AFD3A
:1003C0000100300006F04AFB06F0C2FC01002800E4
:1003D00006F044FB06F064FC322000F0CFFED8E7C4
:1003E00000B900104427002010B9001020B90010F7
:1003F00034B90010094A830094464022634410B582
:100400001C68C0006240C024144080225201134383
:100410001C60034B9C466044416010BD04C0014019
:10042000004001400A4B80009C46042360440029A0
:1004300001D00C230821002A00D10B000268534090
:100440000C221A4080235B01184302607047C046AB
:1004500004C001400123D0228340120693629361BD
:10046000094A83009446402263441968C0004A4008
:10047000C02111408022520113431960034B9C4656
:10048000052360444360704704C0014000400140C0
:10049000024B18688007C00F7047C04600C0064076
:1004A000F8B5EFF3108772B60E4E3368002BFCD010
:1004B000BFF35F8FCB08C4180725A446C45C012393
:1004C0000D40AB4018002040234208D16246234330
:1004D0001370BFF35F8F306087F31088F8BD100092
:1004E00001F0E4FD2C0100D0F8B5CE4647468C461D
:1004F00080B5EFF3108872B6214D2C68002CFCD02B
:10050000BFF35F8F9A422CD8D4080721055D0619E6
:10051000012411408C402C421FD007218946063906
:1005200009E0D408055D06194C460F001440A740A9
:100530003C002F4211D001329342F2D201204042BE
:10054000BFF35F8F00220E4B1A6088F310880028DB
:100550000FDB0CBC90469946F8BD2C43100034705C
:10056000EEE7BFF35F8F00232B6088F31088012034
:1005700040426346002BECD0089801F097FDC0463E
:100580002C0100D00021044B044ABFF35F8F02C34B
:100590009342FAD17047C046000100D0800100D0DC
:1005A000044A1078431CDBB2172B00D910231370B8
:1005B0007047C0463010002000B5054B83B00100E5
:1005C000009318221F230348FFF78EFF03B000BDDE
:1005D00048B900101421002001238340002904D0D1
:1005E000034A1360034A13607047034A1360FBE732
:1005F00080E200E000E100E080E100E001238340D0
:10060000014A13607047C04600E200E0084B10301A
:100610009B688000C358002B07D0064A00209B1A15
:100620002F229A424041C0B270470020FCE7C046EA
:1006300000ED00E034100020024B10309B68800079
:10064000C058704700ED00E070B50D00EFF3108664
:1006500072B60F4A1368002BFCD0BFF35F8F0D4BAF
:1006600010309B6884001B590B4A934203D09D4273
:1006700001D001F033FD074B9B681D51BFF35F8F25
:10068000BFF35F8F0022024B1A6086F3108870BDA3
:10069000240100D000ED00E0CD010010F0B5574678
:1006A0004E464546DE46E0B5894683B00500170054
:1006B000EFF3108A72B65E4A1368002BFCD0BFF3CA
:1006C0005F8F00205B4B18569B46002800DA6CE0D9
:1006D0005A464400584E2418A400331998469B7972
:1006E00010351370554BAA009B6801929B589C468D
:1006F0009B1B2F2B28D8012261469143CB79BB420B
:1007000008D86AE053009B189B00F318DD79BD42BE
:1007100051D9190006228A56002AF3DA0B1D9B468E
:10072000474E43465C46043B1B1B1B05454C5B0D7B
:1007300023438B80887141468A714A46424B8E80A2
:100740000B60CF718A601BE0404B9C4542D1424612
:100750003F4B023413803F4B3619043B9E1B36053A
:10076000384B760D1E433C4B56809380FF23D77148
:10077000937143464A469A60012342461A4394467F
:1007800061462E4B019A9B689950BFF35F8FBFF370
:100790005F8F0022264B1A608AF3108803B03CBC9E
:1007A00090469946A246AB46F0BD01F097FC5B46E9
:1007B000002018568CE70B1D9B468B8804345B0584
:1007C0001B155B4436199E1BE0233605760D1B0274
:1007D0001E43A6E701F082FCB9E745460B001F481F
:1007E0009B1B5B415843000D194B2B80A31C9C465F
:1007F000B4446546174B0434043B5B1B1B05114D89
:100800005B0DAC462B43454636196B800B1F9E1B78
:100810006346A87148463605760D1E430A4BAE80E6
:10082000EF71A8600B60434613439C46A8E7C0469F
:10083000240100D02F2600203410002000ED00E01D
:1008400001BD000000E0FFFF01488047CD0100101E
:1008500000A1FFFF6410002001BDFFFFAAAA000055
:10086000F0B5DE4657464E464546E0B50C0083B02F
:10087000EFF3108972B6594A1368002BFCD0BFF30E
:100880005F8F574B9A68030010339F00D559554A24
:100890009046954232D0A54243D0534EAA1B2F2AF0
:1008A0002CD80122824092465146504A126811408B
:1008B000019151464E4A1160BFF35F8FEFF30582FD
:1008C0009346002A33D101232A009A4393689C421D
:1008D00008D178E04B005B189B00F3189968A1429F
:1008E0002AD01A00062151560029F3DA019B002B69
:1008F00019D052463F4B1A603C4B1A60384B9B68EC
:10090000DD51BFF35F8FBFF35F8F0022334B1A605F
:1009100089F3108803B03CBC90469946A246AB468A
:10092000F0BD1500EAE75246314B1A60E6E7934204
:10093000C9D001F0D3FBC6E706215956002922DBB6
:100940004A005018800034188046A0689860E0790A
:10095000D871062020569871A0797F2824D8A488C1
:10096000F01A6405241544440019E0240005400DE4
:1009700024022043988052181F4B9200B6181A7810
:100980001970B271B2E7594600290FD1FF31917148
:100990001A49918018490A789A71194A9B1B5B4140
:1009A0005A43120D0A70A1E71648E3E7164A1749A1
:1009B000D21A083A5002400D014399801449520856
:1009C0000A43DA8092E70621515613000029B7DA6C
:1009D0005A46002AEAD14546DCE7C046240100D049
:1009E00000ED00E0CD0100103410002000E100E037
:1009F00080E100E080E200E02F26002001BDFFFF43
:100A0000AAAA000001BD00006E10002000F0FFFF48
:100A100000F8FFFFF0B5EFF3058101240443EFF385
:100A2000108672B6214A1368002BFCD0BFF35F8F8B
:100A30001F4B05001F4AED1A6D416A43120D1E4DF2
:100A40008900AF6852B27F58A7421CD00621595680
:100A500091421CD012215956914222D01E21595642
:100A6000914220D02A2159560324914210D0134B91
:100A700019781A708171BFF35F8F00220B4B1A60D7
:100A800086F31088F0BDAB680D4C5C50EFE7002496
:100A90006100091989005B18FF2199710949998042
:100AA000E5E70124F4E70224F2E7C046240100D080
:100AB00034100020AAAA000000ED00E02F2600203C
:100AC000CD01001001BDFFFF054B064A1360064A29
:100AD000136053609360D3601361536193617047F7
:100AE0008080808000E400E004E400E000B5074B73
:100AF00083B001000093002205230548FFF7F4FCB2
:100B0000002801DB1F23181A03B000BD64B90010D0
:100B100034260020024B9C466144890001607047E6
:100B20004000003410B50400FFF73AFD010020003A
:100B3000FFF7F0FFFF232371BFF35F8F10BDC046A7
:100B400010B50400FFF72CFD01002000FFF7E2FFC5
:100B5000FF23A380BFF35F8F10BDC04610B5040014
:100B60000120FFF729FD034BC3189B002360BFF34F
:100B70005F8F10BD40000034034B9C4661448900E8
:100B80000160BFF35F8F70474000003483680B48FB
:100B900010B5844661446244090112019A1859183B
:100BA00054684B6801209C4201D802D00020C0B29A
:100BB00010BD12680B689A42F9D8F7E7FFFFFF0FE4
:100BC0000A4B1968EFF3108072B60A68002AFCD04D
:100BD000BFF35F8F1B68BFF35F8F00221A6080F343
:100BE000108840BF002000217047C046F02500203B
:100BF000F8B5574645464E46DE46E0B599460CAB3D
:100C000019780DAB1B78050090469A4607680029B5
:100C100012D1BE7B002E45D074003B68A419033C62
:100C20001B195A783100BA73002A00D1FA730022D6
:100C30009A705A701A7003E00E004C006418033C5E
:100C40002C4B00229C46AB6861449C4643460901FC
:100C500061440B604B464B600A9B8B600B9BCB60E7
:100C60003B681B199A705A701A707B7B9B46002B4D
:100C70002CD032005946B8687B6898473A680028FB
:100C800017D05B4658465B005B441419033BA070C9
:100C9000D118D35C002B00D063705B460E707B7361
:100CA000B34514D030003CBC90469946A246AB46B2
:100CB000F8BD5B465B005B44033BD3189E70111983
:100CC000125D002A00D05A705B460B707E7342465C
:100CD0004B46287D00F0CAFB041E06D05346002B6D
:100CE00003D13100286800F007FE0E9B002BD9D0FD
:100CF0001C70D7E7FFFFFF0FF0B5DE4657464E46A4
:100D000045460023E0B58BB00893674B8200D4586A
:100D100000239B46099000F01FFB626806000F004D
:100D2000EFF3108572B61368002BFCD0BFF35F8F12
:100D300023689C465B7B9946002B00D169E0A26842
:100D40005A4B90464B441B01984443461A685B68D3
:100D500010001900801BB941002900DC63E00998EC
:100D600000F084FB0023002298460023069207939C
:100D700000239A466368BFF35F8F5A461A6085F373
:100D800010885346002B08D10028C4D10BB03CBCBE
:100D900090469946A246AB46F0BD089B41461802D4
:100DA0004B461843D047626806000F00EFF31085EA
:100DB00072B61368002BFCD0BFF35F8F002F50DB9F
:100DC00033003B4302D02369002B61D12368DA7BD7
:100DD000002A07D051008A1819688C464946624497
:100DE000033A51709A7B002A01D14A469A734A46C7
:100DF000DA734B46E168013BCA5C0132CA545B4678
:100E000023616368BFF35F8F5A461A6085F31088C9
:100E100081E70023002298460023069207930023CF
:100E200000209A46A6E7002902D1002800D096E7C4
:100E30000021604600F0BEFC43461A685B680692DB
:100E4000079343469B689A464346DB689846E368A7
:100E50004B44013B1B7808931B0203432361002092
:100E600088E72369002BB1D0069A079B921BBB41F0
:100E7000002B15DB5946049101210391494602914B
:100E800041460191514620000091FFF7B1FEB6E7BF
:100E900000F062FA32003B0012184B41002BE9DAF5
:100EA0000122034B5242E5E7D4250020FFFFFF0F4C
:100EB000FFFFFF7F10B5144C6368002B04D00A219C
:100EC0001248FFF727FE10BD2300114A10212068A9
:100ED00000F08AFB032000F033FA032000F030FB1F
:100EE00003200C4900F07CFAFFF75AFB0A4B9C46A2
:100EF00003232375D0231B061B6860446375074BCF
:100F000080006060DC60DAE77C100020F0250020C3
:100F10008D0B0010F90C001040000034D425002087
:100F2000004870477C100020F0B54E464546DE462E
:100F30005746E0B585B0019310AB1B78804603930C
:100F4000002300269946009243465A68EFF3108B1F
:100F500072B61368002BFCD0BFF35F8F43461D6849
:100F6000AC7B002C43D067002B683F19033FDB1993
:100F70005A78AA73002A00D1EA7342469E705E70C6
:100F80001E709268494B94460099019AE3181B0120
:100F9000634419605A600E9A9A600F9ADA602B685F
:100FA000DB199E705E701E706B7B9A46002B68D0BA
:100FB00022001900A8686B6898472A68002853D057
:100FC000534650465B005344D719033BB870D118C1
:100FD000D35C002B00D07B7053460C706B73544570
:100FE00050D04346DB681B19013B187800E0002015
:100FF00043465B68BFF35F8F1E608BF31088002C45
:1010000051D04B46002B08D10002204305B03CBC18
:1010100090469946A246AB46F0BD039B002B40D0BC
:101020000E9B00200F999847030004000D000B430E
:1010300037D000290ADA009A019B121BAB410092BB
:101040000193002B0ADB039B99467DE700F084F9AE
:1010500024184D4100940195002DF4DA0123144C1D
:101060005B4200930194EEE753465B005344033B1D
:10107000D3189C70D119D25D002A00D05A70534603
:101080000B706C734346187D009A019B00F0EEF9DB
:1010900081460028A5D043462100186800F02CFCAA
:1010A0009FE70020B2E701204042AFE7FFFFFF0FBC
:1010B000FFFFFF7F407D7047F0B504000D0006265E
:1010C0007642F717C64636196F4100B584B08F4295
:1010D00014D811D000F040F932003B00121A8B41B5
:1010E000002B15DC002B3ED02000290000F068F911
:1010F00004B004BC9046F0BD8642EBD90026002720
:1011000000F02AF932003B00121A8B41002BE9DD76
:10111000002302930193154B3200009314483B00C7
:10112000FFF702FF0028DFDB00239846BC46114A88
:10113000114F7B6A9C4504D8B96A8E42D4D99C452C
:10114000D2D11168EFF3108072B60B68002BFCD07F
:10115000BFF35F8F1368BFF35F8F4146196080F361
:10116000108820BFE5E7002ABED0D1E7C10B0010F0
:101170007C100020F02500200040054070B50600DE
:1011800000F0EAF8FA2204000D00002330000021EC
:10119000920001F019FE00196941002902DBFFF7F6
:1011A0008BFF70BD012001494042F8E7FFFFFF7F40
:1011B000F0B5EFF30583CE46474680B505000C0039
:1011C00085B0002B12D02C4B0020596A8C4203D8DA
:1011D0009B6A0130AB4204D305B00CBC90469946E3
:1011E000F0BD611A481E8141C8B2F5E7234E029353
:1011F0000193234B0200009330000B00FFF794FE95
:10120000031EE0DD20BF7168EFF3108772B60A6835
:10121000002AFCD0BFF35F8FDAB294463068427B7D
:1012200062451DD0FF221A40510089460168914451
:1012300088464946414403398978002913D0F1682A
:101240001B0A88464244013A1278DBB29A420FD018
:101250007368BFF35F8F00221A6087F31088B2E7CC
:10126000FF221A40EBE732699342F1D13161EFE797
:10127000614600F041FBEBE7004005407C10002098
:10128000C10B0010F0B5EFF30582D6464F46464637
:101290001000C0B51038EFF3108872B6214C2368E7
:1012A000002BFCD0BFF35F8F0123190081401E4D3E
:1012B0001F006963AA461D4D29601D4D2E78AC465E
:1012C0003500C5402F402B4215D05346194D5F6A5B
:1012D00083005D59AF4218D3174A8E439B5862462C
:1012E0001670BFF35F8F0022226088F31088002BF6
:1012F00006D0984704E0BFF35F8F276088F310881B
:101300001CBC90469946A246F0BD0C4B92009C46F0
:10131000624413681360BFF35F8F0023236088F378
:101320001088EDE7280100D0004005403C700540E2
:1013300033260020FC250020F41F0020D03F05406C
:1013400010B50100024A0348FFF7AAF810BDC046D5
:1013500080B900102D260020034B596A0A00986AB4
:10136000596A8A42FAD170470040054070B50400BE
:101370000D00124A536A1900966A536A8B42FAD1D9
:101380003000190024184D41AB4211D80ED02B006B
:101390000A494A6A9A42FCD307D1084A02E0516AD4
:1013A000994202D1916AA142F9D370BDA642EED909
:1013B000012301246442E5175B42E9E70040054050
:1013C000064A536A9942FCD807D1044B02E05A6A94
:1013D000914202D19A6A8242F9D370470040054097
:1013E00070B504000D00EFF3108672B61A4A136848
:1013F000002BFCD0BFF35F8F002D1BD02000FFF728
:101400001BF9164981420AD02000FFF71DF901217E
:101410002000FFF7E1F80123A340114A1360114BAC
:10142000A400E550BFF35F8F00220B4B1A6086F3D8
:10143000108870BD0B4BA200D5500122A2400A4972
:1014400020000B7893430B700449FFF709FA002141
:101450002000FFF7C1F8E5E7280100D08512001051
:1014600038600540F41F002033260020F0B54F46B9
:10147000D6464646C0B507002C4C616A0D00A66AE8
:10148000616AA942FAD18B4208D805D001201CBC60
:1014900090469946A246F0BDB242F7D9EFF31089C3
:1014A00072B6234801680029FCD0BFF35F8F012585
:1014B0002049BD408C4609781C4C0E002E438846BE
:1014C000F1B28A46614650460870391D1A488900B3
:1014D00065630A51B9000B50216A0020294219D0D6
:1014E000616A0800A66A616A8142FAD18B4219D802
:1014F00001D1B24216D8C24516D00C4B1F201D6236
:101500005D6301230740BB400C4A1E3813606346ED
:1015100042461A70BFF35F8F0022054B1A6089F3B1
:101520001088B4E70020F5E70120F3E7004005400C
:10153000280100D033260020FC25002080E200E0B6
:1015400010B5EFF3108472B60A490B68002BFCD07B
:10155000BFF35F8F01238340074A08481362027874
:101560009A430270BFF35F8F00230B6084F31088EF
:1015700010BDC046280100D00040054033260020A1
:1015800070B505000E001400002924D0002A24D0D4
:1015900080686B689847296800280ED063001B1983
:1015A0007200033B9219CB18033A9E7088188A5C2C
:1015B000002A14D1047030000EE073009B19620001
:1015C000033B1219CB18033A9C7088188A5C002AD6
:1015D00000D05A700670200070BD0800FCE75A70F9
:1015E00004703000F8E7C04630B583600023CCB209
:1015F00043730133047342608373C4730D00006846
:10160000012C06D9421C0133DBB2137003329C4219
:10161000F9D1FF2129404B00591800234018033805
:10162000437030BDF8B5CE46474606000C0080B585
:10163000002907D04D0003686D18033D5A195778EB
:10164000002F04D120000CBC90469946F8BD7900CB
:10165000C91903398846434459788946002159708D
:10166000517073683A0021008068984733680028F9
:1016700014D042469A18947059195B5D002B00D023
:1016800053700F70270049463000FFF7CBFF390039
:1016900002003000FFF774FF0400D3E742464146E2
:1016A0005D19AF709A185B5C002B00D06B701470E2
:1016B000E9E7C046F0B557464546DE464E46E0B53A
:1016C0000D006B0001685B19DF1E0400C85D83B06C
:1016D0000192CA19002850D043001B18033BCB18B5
:1016E0005E78B446002E1AD1019E002E42D0E67BD1
:1016F000002E04D073009B19CB18033B5D70A37BB5
:10170000002B00D1A573E57300282FD1002353705F
:1017100003B03CBC90469946A246AB46F0BD720071
:101720006244033A89184A78904600224A709146EA
:101730005A70010032002000FFF722FF4346824624
:10174000002B07D05B0021684344033BCB185A7839
:10175000002A16D1424651462000FFF711FF2168AA
:10176000019BCA19002BC2D10028CFD043001B18FF
:10177000033BCB1800219970C8E7019B002BB6D121
:10178000C4E7500080180338091848788346484653
:101790004870587041462000FFF7F2FE59468046D7
:1017A0002000FFF73FFF414602002000FFF7E8FE60
:1017B0008046CFE7F0B54E464546DE465746E0B593
:1017C000467B040075000068AD19033D83B00191AC
:1017D000415D4219002952D04B005B18033BC318EE
:1017E0005F78BC46002F1CD1019D002D44D0E57BC5
:1017F000002D04D06B005B19C318033B5E70A37B04
:10180000002B00D1A673E673002931D100233000EC
:101810005370617303B03CBC90469946A246AB46F8
:10182000F0BD7A006244033A801842789346002261
:10183000427091465A7020003A00FFF7A1FE5B46C5
:101840008046002B07D05B0021685B44033BCB182C
:101850005A78002A17D15A4641462000FFF790FED9
:10186000019B010020684219002BC0D10029CDD076
:101870004B005B18033BC31800209870C6E7019B20
:10188000002BB4D1C2E750008018033809184878FB
:10189000824648464870587059462000FFF770FE4F
:1018A00053468346002B07D05B0021685344033B1B
:1018B000CB185A78002A06D1594652462000FFF725
:1018C0005FFE8346C7E75000801803380918484672
:1018D0004F784870587051462000FFF751FE39008C
:1018E00081462000FFF79EFE494602002000FFF7D8
:1018F00047FE8246E0E7C04670B5040000292CD0C0
:10190000437B8B422ED005684800401803382818C6
:101910008278002A21D053009B18033BEA5CEE1822
:101920008A4202D11BE0002A08D053009B18033BD7
:10193000EB185A788A42F6D142785A700023012275
:10194000837043702000FFF7B5FE617B020020002A
:10195000FFF716FE6073012000E0002070BD4378A1
:101960003370EBE701221900FFF7A4FE607301203A
:10197000F4E7C046F8B5CE464746040080B50620D9
:101980000D0000F023FA061E52D0524B5249E318C4
:101990005A4253418022D20394465B4213404F4A3D
:1019A000634413604E4A136018008A689043FBD169
:1019B000484B8021E3185A4253414A4A5B00490090
:1019C0000620995200F002FA2900C00000F02AFC1B
:1019D000C30932D1402290463F3A6262A362266B2D
:1019E000F30736D427008025E36A00232C376D01E6
:1019F0003D432B600620266300F0E8F94146800055
:101A000000F010FC236B06009846DB073BD46022F5
:101A1000E36A5A406E2313402B60434623638023BE
:101A200010229B013B431A602F4B23630323A364C3
:101A300030000CBC90469946F8BD2C4A93423FD9E1
:101A400000232B4A90462B4A6262A362266BF3075F
:101A5000C8D52200C02330329B011343224A0620FE
:101A60001A60656AA36AAD01ED1800F0AFF922496A
:101A700000F0D8FBAD020100280000F0D3FB0021EC
:101A8000FFF774FCAEE72200C02330329B01134302
:101A9000154A06201A60636AA26A9B01994691441E
:101AA00000F094F94B4614499B02994600F0BAFBAA
:101AB0000100484600F0B6FB0021FFF757FCA6E7FF
:101AC0007F2210409A019046013040081A0080445D
:101AD000030082E70080FCBF00C0004000E000403F
:101AE00000F000404C27002001030000FEFF000032
:101AF000C0FF3F00FFFF00004E0E000030B50C207D
:101B000083B000F0B9F9FEF7C3FC00280ED0994B62
:101B1000994A1A605A609A60DA601A615A619A6149
:101B2000DA611A62954A5A6203B030BD944CA067DC
:101B300000F0F6F90122934B1A60636C012BFCD183
:101B40000322914B1A608E4A936B012BFCD1013317
:101B500001218E4A8E480093043300F03DF905239D
:101B60008C4A009301218C4800F036F98B4B5A685F
:101B7000FF2A02D8802252005A6080227D4C824B7C
:101B800021691201854D1A60002907D0606900F0B3
:101B900049FB431C5800C0180338FDD2E0217F4B9D
:101BA00002201A681140802252012A4311601968EC
:101BB000484003210140116004219A681142FCD081
:101BC0008022802192012A43090111608022520063
:101BD0005A60734B2361734B5968FF2900D85A60D0
:101BE00003227048674B01211A6002009368194272
:101BF000FCD0E02513681D4080235B0103431D607A
:101C000012684A400321114019600221654A936815
:101C10001942FCD0802380219B01034309011960F4
:101C20008021614B490051606361604B5A68FF2A13
:101C300000D8596080225E4BE16912015B4D1A6049
:101C4000002907D0606900F0EDFA431C5800C01865
:101C50000338FDD2E02255490B681A4080235B010E
:101C60002B431A60802380229B012B4312011A60B0
:101C70008022414B52004A60E3614E4B5968FF2974
:101C800000D85A6080224C4B216A1201494D1A60DB
:101C9000002907D0606900F0C5FA431C5800C0183D
:101CA0000338FDD2E02243490B681A4080235B01D0
:101CB0002B431A60802380229B012B4312011A6060
:101CC000802380225B004B602B4BD20223623B4B74
:101CD0005968914200D25A608022394B616A1201E0
:101CE000364D1A60002907D0606900F09BFA431C4A
:101CF0005800C0180338FDD2E02230490B681A4062
:101D000080235B012B431A60802380229B012B439D
:101D100012011A608023DB024B60184B6362294B6F
:101D20005A68FF2A02D8802252005A608022264B2D
:101D3000A1691201234D1A60002907D0606900F0E3
:101D400071FA431C5800C0180338FDD2E0221D4927
:101D50000B681A4080235B012B431A60802380228A
:101D60009B012B4312011A6080235B004B600E4BDA
:101D7000A361D9E618210020006CDC021BB700002B
:101D8000008000403CB0004030B00040002F685957
:101D900000800240008C864700C002403080004036
:101DA000001BB7003C80004040597307548000403E
:101DB00054B000406080004060B000406C80004043
:101DC0006CB000404880004048B00040014B8000AB
:101DD000C058704718210020F8B5040021481700AA
:101DE0001D000E0000F01EFA0100380000F01AFA83
:101DF000069A2B04120313432268002A21DB1A4A95
:101E0000A21851424A41802149018C4652420A405F
:101E1000164962440A6016490A60164917008D681F
:101E2000AF43FBD1C021221D89011143212226602D
:101E3000A0600A602268002AFCDAE36008230B60D5
:101E4000F8BD3F2221680A40B242D8D1A2681205EB
:101E5000120D8242D3D1EE21E268C9020A409A42B1
:101E6000CDD1EDE7001BB7000040FDBF00E0004012
:101E700000F0004000C000408023024A9B00034362
:101E8000D36270470080054010B5140080221B4BC0
:101E9000D2051A6000281AD00123194A1843194B99
:101EA000DA61194A42401A62596298628022134BE1
:101EB000D2051A601549164A1160E022D2041A6050
:101EC000002C07D18022134B12061A6010BD0D4B57
:101ED000D861EBE780236201121B920012191201F4
:101EE0005B049A4200D30C4A0C4B1A60054B5A60B3
:101EF0008022084BD2051A60E8E7C04600B00540D2
:101F0000D3C007B0008005402D3FF84FFCFF010013
:101F10000820014000A00540FFFFFF00C42500206D
:101F2000AA23064A1B0113602F230549D360054BE2
:101F300019605368002BFCDA7047C046004002402D
:101F400000B0FA00006002402C4B2D4A70B51A60B8
:101F50002C4A2D4B2D491A6010008B689843FBD1F9
:101F60002B4C2C4B9C4209D2013B1D1BAD0801356B
:101F7000AD002D1908CC9847AC42FBD1FFF7BEFD50
:101F8000254A214B1A60214A9368DB018033FBD13B
:101F90004022224B224C234D9A675A671A67DA6611
:101FA000AC4208D223682000002B21D00834FEF771
:101FB000C7FDAC42F6D31C4C1C4DA168C0222800C2
:101FC00000F084FFA560FEF7DDFAFEF77DFDFEF769
:101FD00071FF174C174B9C4209D2013B1D1BAD08EA
:101FE0000135AD002D1908CC9847A542FBD170BD35
:101FF0000834FEF797FDAC42D4D3DCE700E00040A4
:10200000BFCDFBFEFE7F3C0000F0004000C0004062
:10201000FC1A00200C1B0020FFFFFF0100F0014014
:10202000F41A0020FC1A002000ED00E0000000205F
:102030000C1B0020141B002000BEFDE7094A030012
:102040001068002805D00849C3188B4207D81360D0
:10205000704706480449C31810608B42F7D9012025
:102060004042F5E7BC21002000000420802A002027
:1020700010B5FFF7E1FFC04610B50C0082B01900A3
:10208000002A0AD0064B0192009302002300054863
:1020900000F032F80120FFF7CFFF034B1A00F2E700
:1020A000A4B90010B4B9001030B900100FB400B5D5
:1020B000084883B001F030F8049B002B07D005A935
:1020C0001800019100F038F8034801F025F80120CC
:1020D000FFF7B2FFE4B9001044B9001010B5014891
:1020E000FFF7E4FFF4B9001010B5002800D110BDCF
:1020F00000F0C6FFFBE7C0460FB410B50C4984B032
:1021000006AA08CA0C680392002C0BD00092012288
:102110000848524202A9A047012004B010BC08BCE4
:1021200004B01847180000F0F7FF0020F5E7C0469C
:10213000C0250020E920001010B5094A03001468EA
:1021400084B0002C08D0012200910648524203A915
:10215000A047012004B010BD00F0DEFF0020F9E729
:10216000C0250020E920001001480421014B184738
:10217000B010002099210010142310B50100188818
:1021800004331B88984710BD162310B5010018882A
:1021900002331B88984710BDF0B5C64600B500292C
:1021A00016D01423040001259846182789004618E4
:1021B0004346216818883B88984701C4431E9841CC
:1021C00040420540A642F3D1280004BC9046F0BD31
:1021D0000125F9E7124A936F9B0815D29066D166E4
:1021E000002905D0FFE7FFE7FFE7516F106F704749
:1021F00004B580210906C2175140002800D0C84309
:1022000009F016FB002104BDF0B5146E556E576F32
:10221000166FFFF7E3FF1466556657671667F0BD44
:10222000000000D0114A936F9B0813D210665166CC
:10223000002905D0FFE7FFE7FFE7516F106F7047F8
:1022400004B5002801D00020C04309F0F1FA0021B4
:1022500004BDC046F0B5146E556E576F166FFFF78C
:10226000E5FF1466556657671667F0BD000000D09D
:1022700094464A4A926F9208624601D228E0C046CC
:10228000F0B5464E346E756E776F366F00F020F8FD
:102290009446424A14665566576716676246F0BD13
:1022A00094463E4A926F9208624601D254E0C0467C
:1022B000F0B53A4E346E756E776F366F00F04CF8AD
:1022C0009446364A14665566576716676246F0BDEF
:1022D000002B24DB11D000293EDA00B5C94340426F
:1022E00000D1013100F038F8C943404200D101313A
:1022F000DB43524200D1013300BD002AEBD100285C
:1023000001D1002905D00020C90FC90701D1C04360
:10231000410800B509F07CFA0022002300BD00B599
:1023200000290ADBDB43524200D1013300F014F8EC
:10233000C943404200D1013100BDC943404200D1F0
:102340000131DB43524200D1013300F005F8DB4399
:10235000524200D1013300BD002923D1002B18D1F6
:10236000002A0CD0BC460D4F38667A660021002347
:10237000FFE7FFE7FFE77A6F386F6746704700288F
:1023800001D00748010000B509F042FA00220023FD
:1023900000BD02000B00002000217047000000D0AB
:1023A000FFFFFFFF002B00D0BFE0130C28D1002A55
:1023B000E7D080B4114F39667A66FFE7FFE730B4A3
:1023C000040C7B6F396F1B0423433B667A66FFE77F
:1023D000FFE7FFE7C04684B27B6F3D6F1B042343DA
:1023E0003B667A66FFE7FFE7C04600232C042D0C0E
:1023F0007A6F386F00196941B0BC7047000000D097
:10240000F0B594460025140E01D112020835140FC0
:1024100001D112010435940F01D192000235D40F7D
:1024200001D152000135D40B0134254F7C66254C77
:102430003C660E0C93B2FFE7FFE7FFE73C6F664395
:10244000360C7703BE467343DF0B5B04C01AB941F9
:10245000130C7343DB18C91ACE086643360CB64416
:1024600093B273431F0F1B01C01AB941130C73437E
:102470001F0B1B05C01AB941860D8F023E436643F0
:10248000360C092D24DB520A7243801A7703460A60
:102490006643360C16235B1BDE40DF40BF196446E3
:1024A0006643821B7046043506330100D940A840BC
:1024B000C01900D30131A24206D20023F0BD0000B2
:1024C000000000D0FFFFFFFF121B0130F3D3F1E744
:1024D00009277F1BFE406446A2B27243801A00D2D5
:1024E0000139220C7243130C1204821A99410B0019
:1024F0007046043513370100F940A840801900D315
:102500000131002B02D1A2420AD2F0BD013000D32A
:102510000131121BFAD2013BF8D1A24200D2F0BD28
:10252000013000D30131121BF7E7F0B51C0C00D0CD
:1025300080E00CB400251C0A04D11B02160E3343A4
:10254000120208351C0B04D11B01160F3343120174
:1025500004359C0B04D19B00960F33439200023547
:10256000DC0B02D192185B4101351C0097186441C5
:102570000134464F7C66464C3C660E0CFFE7FFE795
:10258000FFE7C0463C6F6643360C7703BE4697B202
:102590007743C01B00D20139C01B00D201399FB262
:1025A0007743C91BC91B170C77437E04FF0B801BA5
:1025B000B941CE086643360C0C2D33DBB644120B02
:1025C0001F053A431B0B97B27743C01B00D201395A
:1025D0009FB27743C91B170C77433E043F0C801B07
:1025E000B941860D8F023E43664329277F1BFE407B
:1025F0000C3D7746AF40BF1930BCA2B2ABB27243BC
:102600007343801A9941220C7243130C1204801AEE
:10261000994102000B000137001BA941F9D2781E35
:102620000021F0BD0C277F1BFE4077467F0BAF409B
:10263000FF19E0E700245D1C07D0144F7D66396662
:10264000FFE7FFE7FFE7FFE73C6F95B29EB2654308
:102650006643401BB141150C1E0C654366433604AE
:102660002F0C3E432D04401BB141994204D202007D
:102670000B0020000021F0BD01D19042F7D3801A59
:10268000994101349942F2D3F6E70000000000D0EE
:10269000FFFFFFFF48404140484018B41B4B5B68B8
:1026A000FC46019308BD04DF5729001018B4174BEE
:1026B0001B68FC46019308BD00DF612900109446A9
:1026C000134A926F920809D2624618B40F4BDB6826
:1026D000FC46019308BD0CDF192C00100C4AF0B524
:1026E000146E556E576F166F6246FFF7EEFF084A7D
:1026F0001466556657671667F0BD18B4034B9B68A0
:10270000FC46019308BD08DFBD2A001050270020B9
:10271000000000D0FFB550404240504059404B406F
:10272000594000E0FFB5154F4C00640D03D0BC428A
:1027300004D10C0314D80020090D09055C00640DB8
:1027400003D0BC4204D11C030AD800221B0D1B0578
:1027500001264B4009D44B4003D58B4200D1824225
:10276000FFBD9942FCD19042FFBD0B43DB180343F0
:102770001343F5D0C9434918FFBD0000FF0700000F
:1027800000B5FFF7CFFF01D0002000BD012000BD44
:1027900000B5FFF7C7FF804100BDC04600B5FFF799
:1027A000C1FF01D9002000BD012000BD00B5FFF729
:1027B000B1FF01D9002000BD012000BD00B5FFF729
:1027C000A9FF804100BD012040054A00121804D82D
:1027D0005A00121801D800207047012070470020CD
:1027E000704700000021002805D17047C1174840FC
:1027F000401AFAD0C90713B5064B1B6898470CBCA2
:10280000441CA2401005120B0349091B090519437A
:10281000114310BDEC2500201F04000010B54C0032
:10282000620D8023D218DB00D21A5B057E2A10DDF0
:102830009E3A13DACC170903490819435242D14092
:10284000640001341532202A05DAD0400843604381
:1028500010BD002010BD0846604310BDC80FC01851
:10286000013810BD132370B51D78012D15D010DD72
:102870002748FFF789FC274C01008022200000F048
:1028800025FB022D06D02448FFF776FC234B186069
:1028900070BD204C224AA264F5E72E001D4C204A50
:1028A000A3085B421E401D422FD03300226020202F
:1028B000B1006118801B0A604A608A60CA600A61C0
:1028C0004A618A61CA610A624A628A62CA620A63AA
:1028D0004A638A63CA630A644A648A64CA640A658A
:1028E0004A658A65CA650A664A668A66CA660A676A
:1028F0004A674008102803D18A67CA67A264C2E702
:102900001E339B00E250A264BDE70023CFE7C04620
:1029100053440000502700204C330000EC250020D9
:102920002529001007B5604601880A0A0230DF2A0F
:10293000FAD1C9B2820804D3028840880004104347
:1029400000E00068014A5050039007BD5027002066
:102950000FB403BC0CBCF0B50124E407634000E0F5
:10296000F0B50C0DCF0F661E3605891B640503D329
:10297000C943404200D30131640D03D0661CF60AFE
:1029800007D0E41B00207F00791C89078912803C56
:1029900024031D0DDF0F6E1E36059B1B6D0503D333
:1029A000DB43524200D301336D0D03D06E1CF60A97
:1029B00007D0ED1B00227F007B1C9B079B12803DF4
:1029C0002D032F1B661B58D4A446202E46DA203731
:1029D0001400BC401D00BD40F24033412A43801822
:1029E0005941CB0F05D0C943C04300226442504136
:1029F000514162464D0D28D10D0D07D100281FD041
:102A0000241940414941013A0D0DF9D0640006D323
:102A1000013000D30131002C01D140084000013ABF
:102A20000BD4941CE40A04D112051144DB071944A9
:102A3000F0BDD907204B194300E0D9070020F0BDB5
:102A40000029DDD1002CDBD1F0BD0132C6074008E2
:102A5000CD0728434908002EE1D0D9E73C2E29DADA
:102A6000203E40371400BC4000D00124F240144303
:102A70001A00BB401C43D317ACE7AC46202F08DA42
:102A800020360400B4400D00B540F84039412843D9
:102A9000A5E73C2F0CDA203F40360400B44000D0BC
:102AA0000124F84004430800B1400C43C117EAE791
:102AB00010001900002494E70000F07FF0B50C0D21
:102AC000661E3605891BE60A6405640D02D0651C86
:102AD000ED0A04D0002001210905803C2403A4460E
:102AE0001C0D671E3F05DB1BE70A6405640D02D061
:102AF000651CED0A04D0002201231B05803C240341
:102B00007740644497B484B296B27443070C7E4312
:102B1000150C6F4380B26843361802D301200004BD
:102B20003F183004350C00197D41844688B29AB2B2
:102B300050430C0C62431F0C7C438EB27E439219AF
:102B400002D301263604A4191604170C361867415F
:102B500001BC81B29AB25143040C62431B0C5C432A
:102B600080B25843121802D3012000042418100424
:102B7000130C401863412D185E410020474106BCEC
:102B800088B293B258430C0C6343120C544389B27D
:102B900051435B1802D301210904641819041A0C6B
:102BA000091862416D1856410020474118BCF902CE
:102BB000720D1143F0026A0D1043ED020A0D03D1AC
:102BC0006D1940414941013B124E9B1B7600B342B7
:102BD0000ED26D0007D301300026714166463543A1
:102BE00001D1400840001B05C918E4072144F0BD8D
:102BF0000BDA013306D1013004D101314F0D01D080
:102C00004908F2E7E1070020F0BD01363105002058
:102C1000EBE70000FF030000F0B51C0D671E3F0549
:102C2000DB1BE70A6405640D02D0661CF60A04D0BB
:102C3000002201231B05803C2403D0252D060026FD
:102C4000F6432E661E096E66CE0FF619B44649008D
:102C50004F0D02D07E1CF60A03D000200021403F19
:102C60003F033E1BB600B444013F7F05C91B490822
:102C70002E6F013676089C02950D25437543ED13A2
:102C80007543AD1301356D10F603761B0CB4CC0201
:102C9000450D2C43A2B2B3B25A43270C7B43350CEB
:102CA0006F43A4B26C431B1902D3012424043F19BF
:102CB0001C041D0CA4187D4124196D41009A91B289
:102CC000ACB26143170C7C432B0C5F4392B25A4366
:102CD000A41802D301221204BF182204230C521894
:102CE0007B41019C6C431B19520ED9010A434401DC
:102CF000A01A81B2B2B2514303145A43360C734343
:102D000087B27743D617D21900277E4136049B1924
:102D10001704160C7F185E417316ED18F301002698
:102D200080337541A90F06D16400690AE8055B0A82
:102D3000184309D22FE00422944480337541A90A34
:102D4000A8059B0A184326D3404149412404009A10
:102D5000019B0D005543641B4343E41A95B286B2B0
:102D60007543170C7E43030C5F4392B25A43B61867
:102D700002D301221204BF183204330C52197B41D2
:102D800052429C41002C02D40022013051414008A3
:102D9000CA071043490802B06246D7079210084B91
:102DA000D218084B9A4203D212058918C919F0BDEE
:102DB0000020002A01DC3900F0BD01331905F5E7D8
:102DC000FD030000FE07000051434343C9188C4631
:102DD000110C83B24B4310B4040C614392B280B225
:102DE000504362431C041B0C001910BC59411304CE
:102DF000120CC0185141614470470000132310B5F4
:102E000012481C78FFF7C0F90100012C0AD003DD3D
:102E100080220F4800F05AF80E48FFF7ADF90E4B2C
:102E2000186010BD0A4C5422200000F04FF80B4BE4
:102E30006365A365E36523666366A366E36623674C
:102E40006367A367E3672362E361E5E75346000036
:102E5000502800204C330000EC250020612E00108B
:102E600007B5604601880A0A0230DF2AFAD1C9B2E2
:102E7000820804D3028840880004104300E0006800
:102E8000014A5050039007BD5028002010B504009F
:102E900004F016F8002804D0034B04199C4200D813
:102EA00010BD0248FFF702F90000042000BA00102C
:102EB00001480421014B1847C0100020992100103F
:102EC000014B1B6818470000C0100020014B5B68D5
:102ED00018470000C0100020030010B508001B6850
:102EE0001100984710BDC046F8B54746CE4680B59C
:102EF000437D07000D001600002B37D00024002072
:102F0000002A1EDD4B1E98461B4B9946002C2BD0E9
:102F100043461B5D0D3B5A425341DBB22A5D0A2AF0
:102F200013D00134A642F1DC864203DD311A3B683E
:102F300028189847AD19013D2B780D3B5A42534153
:102F40003B750CBC90469946F8BD002BE9D1A042D8
:102F500003DA211A3B6828189847484602213B6843
:102F6000013498472000DDE73B7DD7E70368110077
:102F700028009847E5E7C04670BA0010F0B5DE4675
:102F800057464E464546E0B585B017001C00060082
:102F90000D00FEF7E1F90023324A12184B41002BD5
:102FA0005BDB314908008A4608F06AFC01906B1C23
:102FB00003D1300004F022FC0500002C28D12B4B5B
:102FC00098462B4B1C68002C15D0002F23D1294F7D
:102FD00002E02469002C0ED02368002BF9D03B6856
:102FE000002B01D0A342F4D120002A003100C047B9
:102FF0002469002CF0D1019B002B2AD1681E854149
:10300000E8B205B03CBC90469946A246AB46F0BD3E
:10301000194B9846D5E7174B994602ABDF1D0A239B
:103020009B4602E02469002CE5D02368002BF9D0F0
:103030004B461B68002B01D0A342F3D12A0031007C
:103040002000C0475B460122390020003B70C0478A
:10305000E8E7504608F0D4FBD0E70122074B524284
:103060009FE7C04640420F00F41A0020E92E0010EE
:10307000A8210020B0210020D92E0010FFFFFF7FE3
:10308000F0B5CE46474680B583B06B460500DE1DE1
:103090003070FEF761F900231A4A12184B41002BD9
:1030A0002CDB19490800884608F0EAFB174B07009B
:1030B0001C68002C16D0164B994602E02469002C9F
:1030C00010D02368002BF9D04B461B68002B01D091
:1030D000A342F3D1200001223100FFF705FF24694C
:1030E000002CEED1002F05D1280003B00CBC904677
:1030F0009946F0BD404608F083FBF5E70122054BF9
:103100005242CEE740420F00F41A0020A8210020CE
:10311000B0210020FFFFFF7F70B5040004F06EFBBC
:1031200000230100050001222000FFF727FF084BC4
:103130001C68002C06D06368002B05D098472469D2
:10314000002CF8D1280070BD2469002CF3D1F9E7D8
:10315000A82100200A4A1368002B05D10CE01A00B0
:103160001B691032002B07D09842F8D1002902D1F8
:1031700003691360016170470029FCD01060FAE711
:10318000A821002010B500F0C7F800F0C1FA012016
:1031900010BDC046F0B50D1E15DD0E4B0D271A688B
:1031A0000D4B4519D31859424B410C495B005E5EEB
:1031B00020210478A64207D093691942FCD101303E
:1031C0001460A842F5D1F0BD93691942FCD1176093
:1031D000F2E7C0460C2600200080FCBF4C270020F0
:1031E00030B50500002926DD002010241B4B013DD1
:1031F0001A6893691C4219D1013093691C42FCD1B1
:1032000013682B548142F4D1154B1B68002B0CD052
:1032100050239363516B183B34320B4011008022D2
:1032200052010A431360002815D030BD0C4B1B68B7
:10323000002BEDD1F7E70A4B1B68002B0BD0502277
:103240003821064B1B689A635A6B34331140802235
:1032500052011343196003204042E6E70C26002088
:1032600004210020064B10B51B68002B06D000215E
:10327000044A12689163044A1068984710BDC0461A
:10328000042100200C2600200C2100201D4BF0B54D
:103290001A68C64698461C4B0E00D31859424B413B
:1032A0001A4F14331C00050000B53B68002807D0F6
:1032B000002B11D0164B3D601E6004BC9046F0BD43
:1032C000002BF7D0906300212000FDF785F9200046
:1032D0001049FDF7C5FAEDE720000E49FDF7B4F9F6
:1032E00001212000FDF778F94346502238211B6860
:1032F0009A635A6B34331140802252011343196090
:10330000D8E7C0460C2600200080FCBF0421002026
:103310000C210020653200100C4B10B51B780C4BB3
:103320000C4C1B780C4B022100202360FDF762F847
:1033300002210120FDF75EF8E12120684902FEF735
:1033400019FB01210548FFF705FF10BD54C8001007
:1033500058C800100C26002000400340D010002068
:103360007047C0460022014B1A707047302600207B
:103370004B790020FF2B0BD18B79002B08D1CB7917
:10338000012B05D1082A03D98A78024B09301A701B
:103390007047C046302600200120704770B50129D3
:1033A00009D115495379107909781B02034300208C
:1033B000994202D070BD0120FCE75378012B08D060
:1033C000022BF7D1002064220021FEF75DFD0120D1
:1033D000F0E79478D278050012021443D20502D5A2
:1033E000620A93401D000548FEF7C6FE7F210300D8
:1033F000214028009847C046302600205542000052
:103400000123037000487047B4BA00104A780B7863
:1034100012021A438B7810B51B041A43CB781B0693
:1034200013439622D200934200D010BD0348FEF70A
:10343000A3FE0021030008009847C0465542000043
:10344000024B1860024B19607047C04608210020EB
:103450001021002010B5024B1878FDF7CFF810BDF1
:1034600031260020114B70B51A68002A1AD0EFF3EC
:10347000108172B610680028FCD0BFF35F8F002265
:103480000B48596002701B68BFF35F8F1A6081F3AD
:10349000108800240025074B1878FDF7AFF82900A5
:1034A000200070BDFA240025A400F4E7CC250020FC
:1034B000322600203126002070B5040000200E00C6
:1034C00001F00EFB002835D0002001F021FB002880
:1034D00030D0FDF741FF0023184A12184B41002B52
:1034E00024DB174D280008F0CBF9002822D000205B
:1034F00001F0F6FA00280BD10120002103244042FC
:1035000000F0D8FC6442280008F07AF9200070BD71
:10351000002001F0FDFA0028EED02100320000204A
:1035200001F002FB041EEED1033CECE70122054B47
:103530005242D6E703246442E8E7C04640420F0007
:10354000F4250020FFFFFF7FF8B5DE46574680B523
:1035500005000C00FDF700FF0023364A12184B410E
:10356000002B5ADB344908008A4608F089F9002804
:1035700003D10CBC92469B46F8BD002001F0B0FA86
:1035800000284ED00026002C43DD2C4B9B4614E037
:10359000A919002001F03CFB070001200021404256
:1035A00000F088FC002001F0F7FAFDF7D5FE234B70
:1035B000F61918605960B4422BDD002001F042FB7F
:1035C000A71B0200B84200DD3A00002AE0D101202A
:1035D0000021404200F06EFC002001F0DDFA0020E6
:1035E00001F07EFA002814D0002001F02BFB002807
:1035F000E1D1FDF7B1FE5B460F001A685B68002160
:1036000084460F4812184B419F4202D8D3D19445AB
:10361000D1D9504608F0F4F8ABE70122094B5242E9
:10362000A0E700200021054B18605960504608F0C3
:10363000E7F89EE740420F00F4250020181C002008
:1036400020A10700FFFFFF7F10B5244C84B00021AC
:10365000200008F0F5F800281CD1214B1A68002A38
:1036600016D0EFF3108172B610680028FCD0BFF3BB
:103670005F8F01241B48596002781B68D2B2047026
:10368000BFF35F8F0020186081F31088002A0AD0F2
:1036900004B010BD01200021404200F00BFC2000CE
:1036A00008F0AEF8F4E7FDF73BFC0400FDF754FE2C
:1036B000FA220023920012184B41002B09DB012152
:1036C000029100210191084920000091FDF72CFC96
:1036D000DEE70122054B5242F1E7C046F425002007
:1036E000CC2500203226002065340010FFFFFF7F2C
:1036F000054B10B51868002804D0044B0022196847
:1037000001F052F810BDC046082100201021002011
:10371000D02310B51B0684B01C68FDF701FCFDF733
:10372000C9FCA04202D0002004B010BD264B1B787B
:1037300001F09AFC2548FDF7F5F90120FDF7D6F9CF
:10374000FF23234C234920701840FCF77DFF20788D
:103750000121FCF741FF0520FCF758FF002822D18A
:10376000FDF7DEFB0400FDF7F7FDFA2200239200CF
:1037700012184B41002B22DB012102910021019103
:10378000154920000091FDF7CFFB0822040000211D
:103790001248FFF795FB002CC5DB11480121FFF70C
:1037A000D9FC0120C0E700220E490520FCF776FF76
:1037B000FCF7F6FE01000948FDF7DEF9EDE701220E
:1037C000094B5242D8E7C0465CC80010F4250020DF
:1037D000312600204936001065340010CC25002029
:1037E000E810002055340010FFFFFF7F00487047AD
:1037F0006CBB00100048704718BB001070B5040087
:1038000016480378002B20D0002C06D1C124144880
:10381000144BA4004380048070BD052C1CD8124BAF
:103820000F48A400E558811C002304E001330A80FE
:103830000231132B0DD0EA5CDCB2002AF6D1C02392
:10384000013464009B001C43E5E7112100F016F8E9
:10385000DAE7CA24A400DEE70020DDE71026002016
:10386000802100200904000080BB001010B5024830
:1038700000F0E2F810BDC046E425002030B54B1E34
:10388000012900D1B0E06B4A11780D112C003034C1
:103890009F2900D9ABE00470012B00D1C7E00F21B4
:1038A000147821400C003034092900DDA1E0447077
:1038B000022B00D1BBE051780D112C0030349F2930
:1038C00000D999E08470032B00D1B0E00F21547827
:1038D00021400C003034092900DD8FE0C470042B36
:1038E00000D1A4E091780D112C0030349F2900D92B
:1038F00087E00471052B00D199E00F2194782140D5
:103900000C003034092900DD7DE04471062B00D124
:103910008DE0D1780D112C0030349F2900D975E04D
:103920008471072B00D182E00F21D47821400C0054
:103930003034092900DD6BE0C471082B00D176E03A
:1039400011790D112C0030349F2964D80472092B91
:1039500000D16CE00F21147921400C00303409298A
:103960005BDC44720A2B62D051790D112C0030348B
:103970009F2955D884720B2B59D00F21547921409F
:103980000C00303409294DDCC4720C2B4FD09179D6
:103990000D112C0030349F2900D9073404730D2BEE
:1039A00045D00F21947921400C003034092901DDE4
:1039B00037310C0044730E2B39D0D1790D112C0006
:1039C00030349F2900D9073484730F2B2FD0D1793D
:1039D0000F220A4011003731092A01DC3032110070
:1039E000C173102B23D010300023037030BD073477
:1039F00051E737310C005AE7073463E737310C00E1
:103A00006CE7073475E737310C007EE7073487E74A
:103A100037310C0090E7073498E737310C00A0E706
:103A20000734A7E737310C00C4720C2BAFD1C01894
:103A3000DAE7C046E425002030B5002589B004004F
:103A40000922002101A80095FFF73AFA0922002176
:103A500005A80495FFF734FA4B236A4668461370AD
:103A600004A90D2207F0C4FE152108222000694494
:103A7000FFF72CFA09B030BD10B501210520FCF785
:103A8000ABFD10BD10B500220021024800F05CF92A
:103A900010BDC046E02100208022024B5202DA64B1
:103AA0007047C04600201150F0B5C64600B506006C
:103AB00000F024F90C231C4DFF22AB6705201B49A5
:103AC000FCF7ECFD40239846194C402200212000D1
:103AD000FFF7F6F941460023012700222120218328
:103AE000144967706380E276A1600B6022545F30F6
:103AF00060844046208705380F4922540F4A63608E
:103B0000E160A26213606362E16207F0D1FE80238C
:103B10009B052F64EB649023094A3000EA50FFF7BD
:103B2000BBFF04BC9046F0BD000011501D050020F5
:103B3000C02100208400105000011050800010505F
:103B400010D001000B785B0602D14B78052B00D01A
:103B500070478A78014B1A60FAE7C046000011509E
:103B6000F0B5C64600B5CC7888780A794B797F21C4
:103B7000A40701401B02C50913434F00A20F140004
:103B8000324E7A195201B21890700120684050707C
:103B900000205B055B0DD0701383D4768046CA008D
:103BA000012D33D02A488446880162448446B444B7
:103BB0006046826040461060002933D0254AC90023
:103BC00090466246414451603F223F339343022C6A
:103BD00000D15B0020487A1901685201B218D16007
:103BE0001E4ACB1803605140534080228846520140
:103BF000934228D84346A4061C4380237F197F01A3
:103C00001B06F6191C4373681C6011E014488446B7
:103C1000880162448446B444604682624046106033
:103C2000002909D100236D01761973600D4BF360F3
:103C3000012004BC9046F0BD084AC9009046624687
:103C400041445162C0E7FEF749FAD3E7C0210020A2
:103C50008400105004001050C825002000001050AF
:103C6000800010500001105010B507F021FE10BD6B
:103C700010B57F200C0020404000E409110000191D
:103C80001A00034B4001C01800F05EF8012010BD7F
:103C9000C02100207F23180010B508400B420BD034
:103CA000C90980224000401806494001401812010D
:103CB000002107F005FE10BD0223034AC9095B1A63
:103CC0009366EEE7C0210020002011507F231800EA
:103CD00010B508400B4200D110BD00234000C909B7
:103CE000411804484901401800220349C37007F0F5
:103CF000E7FDF1E7C0210020FFF7FFFF80220D4B19
:103D0000520410B51A600C4B0C491A6010008B68F5
:103D10009843FBD10A4C9C2200212000FFF7D0F8E9
:103D20008022002152010748FFF7CAF80923636780
:103D300010BDC04600E0004000F0004000C0004060
:103D4000000011500000105070B5837E04000D007B
:103D50001600002B19D100232100E3820133A68233
:103D6000A3762561A01C1B3107F0B2FD002804D00A
:103D700080219023084A8902D150200007F078FD65
:103D8000002805D00123237770BD07F089FDE2E705
:103D9000200007F07DFDF7E700201150024B587816
:103DA000431E9841C0B27047981F0020024B1878FC
:103DB0004007C00F7047C046981F0020034B18787B
:103DC000FF38431E9841C0B27047C04624110020FE
:103DD000F8B5CE46474680B52C4E05003378012015
:103DE000FF2B03D00CBC90469946F8BD532200210E
:103DF0002748FFF765F8274C2000FCF793FE264B79
:103E00001C60264C20001430FCF7A8FE200001F0B6
:103E1000F1FB234B234F1C60234B9846002B04D00F
:103E20003800FFF7EDFA214B1860424600243B783A
:103E3000002A23D01E4A90461C4A9146A34212D81B
:103E40000FD14346984701343B78E4B2A342F5D200
:103E500028003570FFF728FE2800FFF70DFE01202F
:103E6000C0E70020BEE74A461268630094461B196B
:103E7000DB006344002BF4D01B68E3E700F0EEFEA8
:103E80003B780020002BADD1E2E7C0462411002092
:103E9000981F0020501F0020EC1F00200811002058
:103EA000F01F00202A26002001340010701C002082
:103EB0005D4C0010F0B5DE4657464E464546E0B52F
:103EC0008DB001F0D7F8002800D10FE1C74BC84DE5
:103ED0009946C84B09AC9B462E687269EFF3108176
:103EE00072B61368002BFCD0BFF35F8FB161300056
:103EF000210001F0C9F97269B369BFF35F8F002136
:103F0000116083F31088002800D1EFE06378082B5C
:103F1000E2D84A469B00D3589F466368002BDBD00B
:103F2000A0689847D8E77F222179B24E0A40500016
:103F3000CB093618F618300001273030C378BB4360
:103F4000C370C3780337BB43C370002A00D1F2E0CB
:103F5000A94AF37C002A06D0A84A1278934200D2DC
:103F600060E19B1ADBB2002B00D0BFE0A44E627967
:103F70002078A368B047AFE75B4601221B78012198
:103F800013435A46137033235846D25C5E468A4325
:103F9000C254C25C04208243F2540133F25C8A436F
:103FA000F254F25C8243F254237800209A4600F0E7
:103FB00007FD602223791A40602A0DD0402A00D1E3
:103FC000BFE0DB06DB0E012B00D136E1022B00D176
:103FD000D4E0002B00D1C3E020780021FFF75AFE87
:103FE00080212078FFF756FE76E7824E3378DB0794
:103FF00000D471E7834B002B00D16DE700E000BFD8
:104000006AE77C4E3378DB0700D465E77E4B002BF4
:1040100000D161E730780007C00F00E000BF5BE728
:10402000764B754A9846002627781B78002A00D1DF
:1040300079E0764A92469E425FD319D1744B38009C
:104040009847434601361B78F6B2B342F3D2694E25
:10405000532200213000FEF733FF1022FF21F01C15
:10406000FEF72EFF30002022FF211330FEF728FF3D
:1040700000F09CFC674B002B00D12DE700E000BF57
:104080002AE75E4B5C4A9846002627781B78002A70
:104090001FD05E4A92469E423AD321D15C4B3800F3
:1040A0009847434601361B78F6B2B342F3D2514EDD
:1040B000532200213000FEF703FF1022FF21F01CE5
:1040C000FEF7FEFE30002022FF211330FEF7F8FE3F
:1040D00007E0380000F000FE43461B78002BE6D0D6
:1040E000444E00F063FC2379B370F5E60DB03CBCA0
:1040F00090469946A246AB46F0BD52461268730000
:1041000094469B19DB006344002BB1D05B6896E7B3
:1041100052461268730094469B19DB006344002BDF
:10412000DED05B68BBE7380000F0D6FD43461B7865
:10413000002B9DD18BE762792078A36800F054FCB6
:10414000CAE63548002800D146E700F039FC0121D5
:1041500050460AAA00E000BF002800D0BCE63BE7BA
:10416000202A00D19EE0002A00D035E76379092B90
:1041700000D931E7294A9B00D3589F467023217A02
:104180000B4200D028E758460F330B405B00CE09A6
:10419000C018194F8019C07C002F06D0174F3F78E8
:1041A000B84200D2A0E0C01BC0B2002800D096E008
:1041B000002A00D047E11A4F0220627990468243DC
:1041C000012A00D142E14246002A00D004E75B44C4
:1041D0009E193036F37808AA9B07DB0F0232138052
:1041E000504602230AA900F085FB75E6F8BB0010D3
:1041F000F01F0020981F0020013400102A26002004
:10420000D14E00100000000000000000701C0020D3
:10421000D94C001000000000000000001CBC001081
:1042200084BC00105A00D318B14ADB001268D318BE
:10423000002B00D15AE71E6999E6237A0F2B00D98B
:10424000CAE6AC4A5B44DB78002A05D0AA4A127859
:1042500093425ED39B1ADBB2002B00D0BCE6A7488A
:10426000A74E00F0ADFB01215046F3680AAA98471B
:10427000002800D030E66022160023791E401A4242
:1042800000D0A9E663790A3B012B00D9A4E600F02F
:1042900097FB63790A2B00D120E150460AA900F070
:1042A00011FB19E6237A0F2B00D995E6914A5B445E
:1042B000DB78002A06D0904A1278934200D2E6E0DA
:1042C0009B1ADBB2002B00D086E68C488C4E00F0A7
:1042D00077FB01215046F3680AAA98473CE700277C
:1042E000002A00D168E777E647003818804FC00001
:1042F0003F683F18002A00D15EE7002F00D16BE62F
:10430000F86800F05DFB01215046FB680AAA984757
:1043100022E7774A5E00F3181668DB00F618002ED5
:1043200000D159E6F0689CE7A279029273789A422C
:1043300007D07378002B00D047E1029B002B00D000
:10434000EAE05B46029A50460AA95A7000F0BAFAAF
:10435000C2E5737808AA02321370504601230AA9F5
:1043600000F0C8FAB8E5E088030AC0B20F2B00D904
:1043700032E664499A008A5897460AA800F026FB5C
:104380005046A179FFF77EFB022233781343337046
:10439000A2E5E388012B00D01EE608223378934380
:1043A0005A46137079E70220317808AB9A1C8B06C5
:1043B0008908DB0F01400B4311E7E388012B00D094
:1043C0000AE6082233781343EAE74F4B002B00D16B
:1043D00002E600E000BF021E00D1FDE5D37891782F
:1043E0001B020B4350460AA900F084FAB4E6474B7F
:1043F000002B00D1F0E500E000BF021E00D1EBE58C
:10440000504613780AA900F075FAA5E62189FFF74E
:10441000F5F9021EF4D1DFE5022B00D113E13C4B8C
:10442000002B00D1D8E500E000BF0200002A00D137
:10443000D2E5D3E7FFF7DAF9122302000AA95046C2
:1044400000F058FA88E62D482D4F5AE7E288002AF6
:1044500008D142465B449E193036F378012A21D0B8
:104460009B072ED5002F00D136E5F86800F0A8FA9A
:10447000FB680AAA012150469847002000F0A0FAE4
:1044800034235A46D35CDB0700D525E505E7184AF7
:104490005E00F3181668DB00F618002E00D19BE5CD
:1044A000F06814E79B07DDD51A4B1878FFF70EFC70
:1044B0000222F37893434246F370F3789343F37008
:1044C000D0E7144B1878FFF7E5FB0222F37813438B
:1044D0000122F370F3781343F370C3E708AB9A1C1F
:1044E000504601230AA9167000F004FAF4E4C0460D
:1044F000701C0020013400102A260020ED4D001011
:1045000084BC001044BC001000000000000000004B
:104510000000000024110020581EC0B2FFF76AF905
:10452000002800D158E543780693022B00D053E5CC
:104530000121C2793026931152110B400A40120119
:104540005B0113435A4612780700B24313435A469D
:104550001370C37882781B021343C318093704937E
:104560000791049BBB4200D8ACE0079A7B7801928C
:104570000B2B03D1FB7801933B78FF187B78042B3E
:1045800000D029E50026049B584ADB1B9BB203930D
:10459000574B05931B78B24263D0B846B34256D806
:1045A00000D019E5534B544F41465046039A984763
:1045B000082803D9039A824200D38AE0059B01367A
:1045C0001B78F6B2B342E9D206E55046FFF74CFB42
:1045D000B378464A0193464B002698461B78002A3A
:1045E0000DD0464FB34225D820D1454B5046984771
:1045F000434601361B78F6B2B342F3D206E050468A
:1046000000F06AFB43461B78002B0FD15322002198
:104610005846FEF755FC5B461022FF21D81CFEF7DA
:104620004FFC2022FF213748FEF74AFC5B46019AE7
:104630009A7082E618233A68734394466344002BC9
:10464000F4D05B68D2E7FFF7D5F80200EEE62B4B1B
:104650001F6818237343FF18002F00D1BCE4BB6808
:10466000A2E7039B39001A005046984600F04AFB27
:10467000082800D8B0E44246824200D2ACE41E4B87
:104680009846019B012B28D000220AE0BB78D31862
:10469000DBB25B44D978FF2900D09DE40132DE70A3
:1046A000D2B2019B9A42F1D1804633000200390018
:1046B000144800F063FD059B47441B78B34200D3C8
:1046C0004FE789E4104B002B00D13AE600E000BF31
:1046D00037E63B0047469846D3E74246054B92688B
:1046E0009A42D1D1069B0193CEE7C0460134001017
:1046F0002A260020054D001084BC0010701C0020EC
:10470000D94C0010AB1F002000000000F8B5574640
:104710004E46DE4645460C00E0B516001F00002A56
:104720003CD0702398461E4B00259B461D4B9A4655
:104730001AE05B461B78200099465346997800F0B2
:10474000E1FC00281CD021004846FFF709FA0028A8
:1047500016D0A378DA09012A19D00A9A0135137004
:104760002378E418B54219DA6378052B08D1E37889
:104770009B079B0FBB4203D14246A3781A42D8D075
:1047800000203CBC90469946A246AB46F8BD0B9A29
:10479000013513702378E418B542E5DB0120F0E71A
:1047A00024110020981F0020002210B584B001AB16
:1047B000019208325A700E4A996014685860616913
:1047C000EFF3108272B608680028FCD0BFF35F8F49
:1047D0001900A261200000F01DFE6269A369BFF309
:1047E0005F8F0021116083F3108804B010BDC046B4
:1047F000F01F0020702270B58B780C001A4201D097
:10480000002070BD064B20001D78064B997800F003
:1048100079FC0028F4D021002800FFF7A1F9F0E787
:1048200024110020981F00200B007F2010B5184095
:10483000DB0940003333C318034A04481168C01829
:1048400000F01CFC10BDC046EC1F0020981F00208B
:104850000B007F2010B51840DB0940003333C3182C
:10486000034A04481168C01800F030FC10BDC0466F
:10487000EC1F0020981F002070B57F240C406000C2
:104880000E4CCD09241864193034E5780020ED076A
:1048900000D570BD0126E578094835430078E570FC
:1048A000FFF7E6F90028F4D10122E3789343E3709F
:1048B000E37803329343E370EBE7C046981F002090
:1048C0002411002070B50A4E0500082230000C00AB
:1048D000FEF7FCFA002161560023C943C90F2800E6
:1048E000F3600022C901B360FFF7C6FF70BDC04688
:1048F0003C1F0020F8B5CE4647469046294E80B56D
:104900008146082230000D001F00FEF7DFFA434603
:10491000B3600023F381EC79AB7924021C43231CA0
:10492000BC4200D93B1C9FB2B381002C12D0002F97
:104930001ED04346002B32D03B1C402F1ED89FB2C6
:1049400033787F2B1FD80021174A3B004846FFF7DA
:1049500093FF09E0002169560023C943C90F0022D3
:104960004846C901FFF788FF0CBC90469946F8BD40
:1049700033787F2B10D980210022E6E740239FB2B5
:1049800033787F2BDFD9084C3A0041462000FEF7F0
:104990009DFA80212200D8E700210022D5E70020DF
:1049A000E2E7C0463C1F0020581F002010B514222B
:1049B00000210248FEF784FA10BDC0463C1F0020CB
:1049C000014B18617047C0463C1F002010B5054CD4
:1049D000010008222000FEF779FA0023A360E360BB
:1049E00010BDC0463C1F0020F8B53A4C1D0023788E
:1049F0000600DA09C9098A4213D00020002D00D030
:104A0000F8BD354B002B03D021003000FFF79AF89A
:104A10002369002B43D02200032130009847012056
:104A2000EEE77F2B06D8A068002836D02A002B4955
:104A3000FEF74CFAA368E28959195219E38892B239
:104A4000E281A160934214D03F2D12D9A589A81A02
:104A5000071C80B240282ED82378BFB27F2B2CD8D9
:104A60000021AA4234D01D4A3B003000FFF704FF6A
:104A7000C6E72369002B05D02200022130009847A9
:104A800000280ED0002161560023C943C90F00221F
:104A90003000C901FFF7F0FEB2E70020B0E70120C7
:104AA000AEE700213000FFF7F5F830008021FFF776
:104AB000F1F80120A4E74027CEE7AA4207D0074C2F
:104AC0003A002000FEF702FA80212200CCE7802184
:104AD0000022C9E73C1F0020453B0010581F002062
:104AE00010B50400FFF75AF9002801D1002010BDCD
:104AF000FFF75CF90028F9D1B22080004443034855
:104B00000019037901201840F1E7C046741C002009
:104B1000B2239B00584310B5024B1030C01800F070
:104B20007FFB10BD741C0020F0B5B225AD004543DD
:104B30002C00C646174F1034E41900B5200092B27D
:104B400000F0F0FB0600200000F088FB3F2803D8AF
:104B5000300004BC9046F0BD7B190020D9789846FF
:104B6000FFF762FE0028F3D0200000F077FB3F281B
:104B70000AD992239B00EA184346D219D97800201B
:104B80004023FFF779FEE3E743460020D978FFF79B
:104B90005FFEDDE7741C0020F8B50400FFF7FEF8A7
:104BA000002801D10020F8BDFFF700F90028F9D155
:104BB000B220800044432500144E2435AD1928004E
:104BC00000F02EFB0028EDD037190020B978FFF750
:104BD0002BFE0028E6D0A2239B009C466444A41927
:104BE00021002800402200F09DFBB978051E08D066
:104BF000030022000020FFF73FFE0028D2D028004B
:104C0000D1E70020FFF724FECCE7C046741C00204B
:104C100070B5B224A4004443094B2434E4180500C1
:104C200092B2200000F03AFC0600200000F0F8FAF2
:104C30003F2801D8300070BD2800FFF7ADFFF9E72D
:104C4000741C0020B2239B00584310B5024B243043
:104C5000C01800F003FB10BD741C0020B222F0B598
:104C60001B4C83B0002120009200FEF729F9FF239E
:104C70006371184B80260025E3800127082321005B
:104C8000200076002373320027816581383100953A
:104C9000073B103000F08CFA21002000393132003F
:104CA000FF3101230097243000F082FA8E239B000D
:104CB000E6183000FBF736FF90239B002662E618CB
:104CC0003000E561FBF72EFF2663656303B0F0BD9E
:104CD000741C002000C2FFFF10B5094C0522002102
:104CE0002000FEF7EDF820002434103000F082FCA4
:104CF000200000F07FFC0121200000F09BFC10BD93
:104D0000741C0020F0B54B79060083B0022B02D151
:104D10008B79022B03D00025280003B0F0BD304F63
:104D2000BB78002BF7D18B7809253B700C780C19D8
:104D30006378242B0BD1082A02D80FE0AA420DD3A6
:104D40002378E418ED186378ADB2242BF6D0052B48
:104D500021D0042B02D163790A2B2FD0214C2000C3
:104D600000F07CFA3F28D7D92600103E0020F178C9
:104D7000FFF75AFD0028CFD0200000F06FFA3F283F
:104D800017D98E239B00E218F93BF178FF3B0020F6
:104D9000FFF772FDC0E721003000FFF72BFD002870
:104DA000B9D0A3787B702378ED18E4186378ADB29E
:104DB000CFE7F1780020FFF74BFDADE70A4B2778EE
:104DC000019301330093022202233000E119FFF71F
:104DD0009DFC00289FD00E35ED19ADB2BEE7C04650
:104DE000741C0020841C0020761C0020F8B5602371
:104DF00014001278050013400020202B12D12F4EF2
:104E00006379277932781B023B439A420AD163784F
:104E1000222B27D007D8202B17D0212B02D10129F4
:104E20003ED00120F8BD232BFCD1012940D003291D
:104E3000F7D1234B002BF4D0E178A37809020020AE
:104E4000194300E000BF0120ECE7012928D0032925
:104E5000E7D11C4B002BE4D00020B11DFEF7D6FAA1
:104E60000120DFE7012923D00329DAD101252F0012
:104E70003000A378E478023924021C4327403471BF
:104E80007940243000F0D6FB0F4B002BC9D02A000C
:104E9000640800203900224000E000BF0120C1E783
:104EA000072321002800094AFFF724FD0120B9E764
:104EB00021002800FFF706FD0120B3E7741C002045
:104EC000000000000D340010000000007A1C0020DB
:104ED000F8B557464E464546DE46E0B55D4F80463E
:104EE000FA780C001E008A4265D19AB292239B0088
:104EF000FD1810239946B9442900484600F0CEFA1F
:104F0000554B002B19D07B79FF2B16D0002E14D0D7
:104F1000AA199246BB4603E0013555450DD07B7971
:104F20002A789A42F8D1484600F090F90028F3D147
:104F30005B46597900E000BFEEE7484B002B05D0F7
:104F4000484600F083F9002800D176E0484600F09A
:104F500085F93F2858D84A46103A93789C4207D0A2
:104F6000012420003CBC90469946A246AB46F8BDC1
:104F70003B4B002B02D0002000E000BFFEF70EFFED
:104F800000281DD1374C200000F04AF90028E7D155
:104F9000002EE5D0B306E3D1243CA1784046FFF7CC
:104FA00043FC2500041EDBD0002300224046A978E4
:104FB000FFF762FCD5E7BB788B42D9D00024D0E75D
:104FC000FEF7F4FE274C0028DDD1200000F028F980
:104FD0000028D8D02500243D0020A978FFF724FC24
:104FE0000028D0D099239B00E718390040222000E8
:104FF00000F098F9A978031E28D03A000020FFF7A6
:105000003BFC0028ACD1BEE74D46103D0020E978BE
:10501000FFF70AFC002801D1AB789FE7484600F073
:105020001DF93F280CD98E22920040230020E978F8
:105030004A44FFF721FCAB7890E7FEF759FB85E780
:105040000020E978FFF704FCAB7887E70020FFF742
:10505000FFFB98E7741C002000000000F1360010F0
:1050600000000000981C002010B50020FEF7B0FEE4
:1050700010BDC04610B5FEF7A1FE10BD037870B597
:10508000DB0704000E00DD0F002B17D103785B0750
:1050900001D5280070BD01213000494206F0D8FB3F
:1050A0002378DB07DD0F002B0AD123785B0708D4B8
:1050B0000422237801251343237002E00025E8E74A
:1050C0000025300006F09CFBE3E7C04670B50D00FC
:1050D000012104004942280006F0BAFB23785B074F
:1050E000DE0F002B04DB280006F08AFB300070BDC9
:1050F0002378DB0704D40422237893432370F2E758
:105100000026F0E7437902791B0213435B055A0D31
:10511000C3789B079B0F022B05D0032B15D00020D3
:10512000012B08D0704702291CD000204023934255
:105130004041C0B2F6E702394B4259410D4B9C4603
:10514000614491424041C0B2ECE702394B425941BF
:10515000F023002049429B001940403191424041D8
:10516000C0B2DFE7044B9C46624450425041C0B29B
:10517000D8E7C046FF03000000FEFFFF8A1870B5A5
:10518000914207D27F264C78052C04D00C7809195F
:105190008A42F8D870BD34008D782C406400041920
:1051A000ED0963550C7809198A42ECD8F2E7C0463C
:1051B000F0B5C64600B5040006A8057880208846EC
:1051C00017001E000002824227D8E068002803D0A2
:1051D0000121494206F03CFB2069002803D001214F
:1051E000494206F035FB4346236073045B0CED0334
:1051F0001D430023E0686381A780E58023810028A8
:1052000001D006F0FDFA20690124002801D006F043
:10521000F7FA200004BC9046F0BD0024F9E7C04630
:1052200010B5048941898288A3B288B28C4207D321
:105230001B1A9BB2101C9A4200D9181C80B210BDD8
:105240005100091A5B189BB2F4E7C04603894089F4
:10525000181A43425841C0B27047C04630B504895D
:1052600041898288A3B28DB28C4207D35B1B9BB26B
:1052700000209A4201D9D31A98B230BD5000401B89
:105280001B189BB2F4E7C04670B5040000690D001E
:10529000002803D00121494206F0DAFA2689628902
:1052A000A088B1B293B2964233D3CA1A92B2002AFE
:1052B00028D0904208D2814230D30B1A9BB263812E
:1052C000984203D81B1A9BB29842FBD9E288216806
:1052D0005204520C53432800C918FDF7F7FD6189A9
:1052E00001254B1C9BB2A08899420ED90023400097
:1052F0001B1A9BB220696381002801D006F080FA56
:10530000280070BD002563899BB240008342F1DB19
:10531000EEE74200D21A8A1892B2C8E709188BB297
:105320006381CDE7F0B54F464646D6460400006996
:1053300089469046C0B5002803D00121494206F0B5
:1053400087FA21896389A7888AB29DB2994249D395
:10535000561BB6B2002E4BD0B74205D2BA4255D238
:10536000D21995B23E0065814346B0454CD89EB2F5
:10537000AF4203D8ED1BADB2AF42FBD9E288781B38
:105380005204530C19009846236869439C4680B226
:105390006144864232D94346584383B21A00484694
:1053A0009A46FDF793FD43464846F71BED195D43CA
:1053B00021685044AAB2FDF789FD6189A7888B193D
:1053C0009BB27A00994215D99B1A9BB220696381DE
:1053D000002801D006F014FA30001CBC9046994613
:1053E000A246F0BD7E00761B9619B6B2002EB3D150
:1053F00063899BB27A009342E8DBE5E74246484680
:105400007243FDF763FDD8E7331CB0E7D51BADB29F
:10541000A8E7C046F8B50400C0680E00002803D015
:105420000121494206F014FA258920896189A28860
:10543000ADB283B28FB2884228D3DB1B9BB29A42B3
:1054400009D8E779FF0906D1E068002801D006F005
:10545000D7F93800F8BD2B00954203D39B1A9BB2B5
:105460009342FBD2E28821685204520C5343C8187D
:105470003100FDF72BFDA2886B1C9BB252009D42B0
:1054800009D99B1A9BB201272381DDE75100C91B73
:105490005B189BB2D3E79342F5DBF2E7F0B54546E4
:1054A000DE4657464E46E0B504008846150083B0F8
:1054B000002A6AD0C068002803D00121494206F0C2
:1054C000C7F92789E2796389A688BFB29BB2D2095E
:1054D00043D19F4263D27200D31AFB189BB20022C1
:1054E00091469E4233D9F31A1A1C9BB2AB4200D9A3
:1054F0002A1C93B299464B46002B28D0DB199BB24D
:105500009B463D00B74203D3AD1BADB2B542FBD2C3
:10551000E288711B5204530C18009A4623686843B2
:105520009C4689B26044494545D352464B46414664
:105530005A43FDF7CBFCA3885B00BB4501D39B45D9
:1055400003DB5A46D31A9BB29B465B462381E06835
:1055500000281CD006F054F919E0B54222D29F422F
:105560003ED3FA1A92B2710052198A4208DB9A1994
:1055700092B2571BBFB29346BB4236D97F1ABFB215
:10558000EB199BB29B46A946BBE7002399464846C8
:1055900003B03CBC90469946A246AB46F0BDFB1A10
:1055A0009BB29CE7AA1BE5881F006D046D0C554358
:1055B000B146A8449FE7534659438BB21A0041466F
:1055C0000193FDF783FC49468A1B5146AA184A43BA
:1055D000019B20684344190092B2FDF777FCAAE7CB
:1055E0007100CA1ABA1892B2BEE7A946B94200DDE4
:1055F00087E7C3E710B50400C068002803D0012185
:10560000494206F025F92069002803D001214942CA
:1056100006F01EF90023E06863812381002801D091
:1056200006F0EEF82069002801D006F0E9F8012024
:1056300010BDC04670B50400C0680D00002803D03E
:105640000121494206F004F92069002803D0012114
:10565000494206F0FDF87F21E379ED011940E06849
:105660002943E171002801D006F0CAF8206900281A
:1056700001D006F0C5F8012070BDC046F0B5454622
:105680008046464B574643445A4253418022DE46A9
:105690004E4692029446E0B55B42414A1B04634485
:1056A0001360404A8A46404985B013601D008A68ED
:1056B0009543FBD10620FCF789FB43465A68022339
:1056C0001A4001924246043211000292C022920115
:1056D00011430B6081465346802003915146DF0DF4
:1056E0005E028A029B0D0221400005E0914507D32E
:1056F00092197B4181424AD00C000231002BF5D037
:105700002B00802627024D463F1B9946760002E07B
:105710003F1B012E3DD039002800B346013EFCF767
:1057200081FD8245F4D259466143A946350243467C
:105730001C611B6880225D40FF231B021D40434605
:1057400052011A438023029C01989B011C4315605F
:10575000206002254046039E406835604646072784
:10576000366828407740CF263E401660206040468D
:10577000243018430323036048462560FCF752FD9C
:1057800005B03CBC90469946A246AB46F0BD0C0025
:10579000B6E74B462100A9461D00C8E70040FCBF04
:1057A00000E0004000F0004000C00040F8B5DE46D8
:1057B00057464E4645468346E0B505200C00FCF7AB
:1057C00005FB0600600821008019FCF72BFD430053
:1057D00098468044070005214046FCF723FD3B1A0C
:1057E0009A46204B8146700080199C4234D81E494D
:1057F000FCF718FD451C5B461C680023E366226825
:105800000433534006221A4080235B0123431A606D
:105810005346E3614B462362434601204F2B03D995
:1058200050214046FCF7FEFCA0232200E0508023DC
:10583000E06F7C3245402D045B0113432D0C1D604D
:10584000012339003000E366FCF7ECFC3CBC9046D9
:105850009946A246AB46F8BD0449FCF7E3FC451C5B
:10586000C9E7C0463F420F008096980040787D010E
:10587000104A70B5821A53425A41072352429A4342
:105880000D4B10321A600D4B0D4C1A601500A368B9
:105890009D432B1EFAD166240268FF340571D5663C
:1058A0001460633C8833FF3CD5639563D450FFF7A5
:1058B0007DFF70BD2811002000E0004000F0004096
:1058C00000C00040F0B54546DE4657464E46E0B5BE
:1058D00083B005000CA800782C6884460020E066A0
:1058E00061600121E166002B55DD591E88460127C4
:1058F00061464F4010218A467031894646467F02F4
:1059000000930021002803D129794B1E9941890277
:1059100000239846864236D0135C19434346194308
:10592000009B216198465346616B0B42FBD0434676
:1059300000934B46E3589846002B0ED1864224D064
:10594000009B01308342DCD163462B7103B03CBC29
:1059500090469946A246AB46F0BD616D0121019289
:105960008022636B92001342FAD0019A236E0029C1
:10597000E6D04146002903D0CB0701D40B07E3D47E
:1059800002204042E0E7B846C6E76346002BD7D185
:1059900000210192E4E70020D6E7C046F0B5D646E4
:1059A0004F464646C0B5050008A800782C688446D6
:1059B0000020E06661600121E166002B3ADD591E9E
:1059C0008846012661464E40802149008A4680393A
:1059D00089467602616F1029FCD0002822D08027EA
:1059E00000217F00404512D0276102E0A16F00290D
:1059F00011D149466158616D0029F7D0022040421B
:105A000063462B711CBC90469946A246F0BD574692
:105A100031430F43E8E72169115401308342EFD04D
:105A20002C68D7E729790029D9D0A0278021FF0049
:105A3000C900D7E70020E3E770B5224C224920686F
:105A4000FFF71CFEC0210220236889011C1D214391
:105A50005A68086019680240CD30884380214901A6
:105A60000B431860802301259B0123431A60174BC9
:105A700001211888FAF7BEFC154B01211888FAF7A6
:105A8000B9FC144C2088FAF7E5FC2A002388D024BE
:105A90009A40114E2406308862626261FAF7DAFC9D
:105AA0002A0033880D4E9A400023F05E62626261E4
:105AB000431C06D0FAF7CEFC0022B35E9D4065621F
:105AC000656170BD3C110020005A62023611002051
:105AD0003811002030110020321100203411002034
