:020000041000EA
:1000000000B5324B212058609868022188439860DF
:10001000D860186158612E4B002199600221596106
:100020000121F02299502B49196001219960352056
:1000300000F044F80222904214D00621196600F024
:1000400034F8196E01211966002018661A6600F04E
:100050002CF8196E196E196E052000F02FF8012189
:100060000842F9D1002199601B49196000215960AB
:100070001A491B48016001219960EB211966A021F2
:10008000196600F012F800219960164914480160C1
:100090000121996001BC002800D000471248134993
:1000A000086003C880F30888084703B5996A0420EC
:1000B0000142FBD001200142F8D103BD02B5186610
:1000C0001866FFF7F2FF186E186E02BD00000240BE
:1000D000000000180000070000035F00212200005C
:1000E000F4000018222000A00001001008ED00E03C
:1000F00000000000000000000000000074B24E7A12
:1001000000200420F7010010C3010010C5010010F9
:10011000C1010010C1010010C1010010C101001097
:10012000C1010010C1010010C1010010C701001081
:10013000C1010010C1010010C9010010CB01001065
:10014000CD010010CD010010CD010010CD01001037
:10015000CD010010CD010010CD010010CD01001027
:10016000CD010010CD010010CD010010CD01001017
:10017000CD010010CD010010CD010010CD01001007
:10018000CD010010CD010010CD010010CD010010F7
:10019000CD010010CD010010CD010010CD010010E7
:1001A000CD010010CD010010CD010010CD010010D7
:1001B000CD010010CD010010CD010010CD010010C7
:1001C00000BE00BE00BE00BE00BE00BEEFF3058054
:1001D000103800BEF2EB8871AC9C0010CC9C001073
:1001E0003402001090A31AE700201F49086006C8D7
:1001F00081F3088810471D48006800282FD10DA4FE
:100200000ECC002902D000F012F8F9E71849194A7B
:10021000002000E001C19142FCD1174988471749ED
:1002200088471749884700BEFDE701C901C29A42C5
:10023000FBD37047CC9C0010C00000204C0F002066
:1002400058AB0010000004200000042058AB001040
:10025000001004200010042000000000704709482E
:1002600001F070FD0047000008ED00E0000000D044
:10027000500F0020E4140020151B0010550300103F
:100280003D1C00105756000006005250ABB360539F
:10029000D490001006005250861C0302E490001017
:1002A000060052505422A29DEC90001005005250BE
:1002B000DE65F46858AB0010F8B5C0460448054B3D
:1002C00010B5834203D0044B002B00D0984710BDDB
:1002D0004C0F00204C0F002000000000064807498A
:1002E000091A8B10C90FC91810B5491003D0044B57
:1002F000002B00D0984710BD4C0F00204C0F002061
:100300000000000010B5074C2378002B09D1FFF73F
:10031000D5FF054B002B02D0044800E000BF0123AD
:10032000237010BD5010002000000000188F001036
:10033000054B10B5002B03D00449054800E000BF71
:10034000FFF7CCFF10BDC046000000005410002095
:10035000188F0010F0B5DE4657464E464546E0B5CC
:1003600085B004F033F802F035FF012003F024F8E3
:1003700003F0FEFF02ABDE1DF3B201935F4B604D55
:100380009B46604B604F9A46604B9946604B98463F
:1003900003F096FA0021002003F0D0FE29685D48A2
:1003A0004B1C2B6003F0D4FE0023EA5EF0230A21ED
:1003B0001B02142003F0E8FBFF2004F023F80100E7
:1003C000554803F0C5FE04F079F8040004F056F82F
:1003D00021000200514803F0BBFE002004F012F897
:1003E00001004F4803F0B4FE012004F00BF80100B7
:1003F0004C4803F0ADFE022004F004F801004A4826
:1004000003F0A6FE032003F0FDFF0100474803F0C0
:100410009FFE042003F0F6FF0100454803F098FE1C
:10042000052003F0EFFF0100424803F091FE062093
:1004300003F0E8FF0100404803F08AFE072003F0C4
:10044000E1FF01003D4803F083FE082003F0DAFFDE
:1004500001003B4803F07CFE092003F0D3FF0100BC
:10046000384803F075FE0A2003F0CCFF010036483F
:1004700003F06EFE0C2003F0C5FF0100584603F0A8
:1004800067FE0D2003F0BEFF0100504603F060FE42
:10049000112003F0B7FF0100484603F059FE122077
:1004A00003F0B0FF0100294803F052FEFE2003F0E4
:1004B000A9FF0100264803F04BFEFF2003F0A2FF36
:1004C0000100404603F044FE1F2301990C203370C5
:1004D00003F0B6FF0A2000F071FD0C20347803F021
:1004E00091FF21000200380003F032FE03F052FFBA
:1004F000FA20400000F062FD4AE7C046CC8F0010B1
:1005000070120020D88F001014900010E48F00109B
:1005100008900010188F0010288F0010388F0010DE
:10052000488F0010548F0010608F00106C8F0010E7
:10053000788F0010848F0010908F00109C8F001017
:10054000A88F0010B48F0010C08F0010F08F001023
:10055000FC8F0010094A830094464022634410B582
:100560001C68C0006240C024144080225201134322
:100570001C60034B9C466044416010BD04C00140B8
:10058000004001400A4B80009C460423604400293F
:1005900001D00C230821002A00D10B00026853402F
:1005A0000C221A4080235B01184302607047C0464A
:1005B00004C001400123D02283401206936293615C
:1005C000094A83009446402263441968C0004A40A7
:1005D000C02111408022520113431960034B9C46F5
:1005E000052360444360704704C00140004001405F
:1005F000024B18688007C00F7047C04600C0064015
:10060000F8B5EFF3108772B60E4E3368002BFCD0AE
:10061000BFF35F8FCB08C4180725A446C45C012331
:100620000D40AB4018002040234208D162462343CE
:100630001370BFF35F8F306087F31088F8BD100030
:1006400001F01AFB2C0100D00021044B044ABFF337
:100650005F8F02C39342FAD17047C046000100D0B9
:10066000800100D0044A1078431CDBB2172B00D95C
:10067000102313707047C046C0040020012383403C
:10068000002904D0034A1360034A13607047034AE9
:100690001360FBE780E200E000E100E080E100E0C1
:1006A000024B10309B688000C058704700ED00E09E
:1006B00070B50D00EFF3108672B60F4A1368002B69
:1006C000FCD0BFF35F8F0D4B10309B6884001B592B
:1006D0000B4A934203D09D4201D001F0E5FA074B4B
:1006E0009B681D51BFF35F8FBFF35F8F0022024BEA
:1006F0001A6086F3108870BD240100D000ED00E080
:10070000CD010010F0B5DE4657464E464546E0B5F1
:100710000C0083B0EFF3108972B6594A1368002BAE
:10072000FCD0BFF35F8F574B9A68030010339F00D4
:10073000D559554A9046954232D0A54243D0534EA2
:10074000AA1B2F2A2CD80122824092465146504A99
:1007500012681140019151464E4A1160BFF35F8FFC
:10076000EFF305829346002A33D101232A009A43EE
:1007700093689C4208D178E04B005B189B00F3180B
:100780009968A1422AD01A00062151560029F3DAAD
:10079000019B002B19D052463F4B1A603C4B1A600C
:1007A000384B9B68DD51BFF35F8FBFF35F8F002233
:1007B000334B1A6089F3108803B03CBC90469946CD
:1007C000A246AB46F0BD1500EAE75246314B1A602F
:1007D000E6E79342C9D001F067FAC6E70621595609
:1007E000002922DB4A005018800034188046A06897
:1007F0009860E079D871062020569871A0797F28FA
:1008000024D8A488F01A6405241544440019E0246F
:100810000005400D24022043988052181F4B92007F
:10082000B6181A781970B271B2E7594600290FD17B
:10083000FF3191711A49918018490A789A71194AC1
:100840009B1B5B415A43120D0A70A1E71648E3E770
:10085000164A1749D21A083A5002400D01439980AE
:10086000144952080A43DA8092E7062151561300D0
:100870000029B7DA5A46002AEAD14546DCE7C046E5
:10088000240100D000ED00E0CD010010C4040020E0
:1008900000E100E080E100E080E200E06B12002077
:1008A00001BDFFFFAAAA000001BD0000FE04002058
:1008B00000F0FFFF00F8FFFFF0B5EFF30581012422
:1008C0000443EFF3108672B6214A1368002BFCD064
:1008D000BFF35F8F1F4B05001F4AED1A6D416A433E
:1008E000120D1E4D8900AF6852B27F58A7421CD02E
:1008F0000621595691421CD012215956914222D0BC
:100900001E215956914220D02A2159560324914242
:1009100010D0134B19781A708171BFF35F8F0022CA
:100920000B4B1A6086F31088F0BDAB680D4C5C5021
:10093000EFE700246100091989005B18FF21997114
:1009400009499980E5E70124F4E70224F2E7C0466B
:10095000240100D0C4040020AAAA000000ED00E099
:100960006B120020CD01001001BDFFFF054B064AB0
:100970001360064A136053609360D3601361536140
:10098000936170478080808000E400E004E400E030
:10099000024B9C466144890001607047400000346E
:1009A00010B50400FFF75EFE01002000FFF7F0FF26
:1009B000FF232371BFF35F8F10BDC04610B5040045
:1009C000FFF750FE01002000FFF7E2FFFF23A380A6
:1009D000BFF35F8F10BDC04683680B4810B58446D7
:1009E00061446244090112019A18591854684B680D
:1009F00001209C4201D802D00020C0B210BD126874
:100A00000B689A42F9D8F7E7FFFFFF0F0A4B196806
:100A1000EFF3108072B60A68002AFCD0BFF35F8F34
:100A20001B68BFF35F8F00221A6080F3108840BFFD
:100A3000002000217047C0464C120020F8B55746F0
:100A400045464E46DE46E0B599460CAB19780DABEF
:100A50001B78050090469A460768002912D1BE7B94
:100A6000002E45D074003B68A419033C1B195A782A
:100A70003100BA73002A00D1FA7300229A705A70BA
:100A80001A7003E00E004C006418033C2C4B00224B
:100A90009C46AB6861449C464346090161440B6037
:100AA0004B464B600A9B8B600B9BCB603B681B19D2
:100AB0009A705A701A707B7B9B46002B2CD03200A8
:100AC0005946B8687B6898473A68002817D05B4653
:100AD00058465B005B441419033BA070D118D35CEB
:100AE000002B00D063705B460E707B73B34514D04F
:100AF00030003CBC90469946A246AB46F8BD5B46EA
:100B00005B005B44033BD3189E701119125D002AF1
:100B100000D05A705B460B707E7342464B46287D70
:100B200000F09AFB041E06D05346002B03D131007F
:100B3000286800F0D7FD0E9B002BD9D01C70D7E79A
:100B4000FFFFFF0FF0B5DE4657464E4645460023F1
:100B5000E0B58BB00893674B8200D45800239B46C6
:100B6000099000F019FB626806000F00EFF3108592
:100B700072B61368002BFCD0BFF35F8F23689C46CE
:100B80005B7B9946002B00D169E0A2685A4B9046E6
:100B90004B441B01984443461A685B6810001900D7
:100BA000801BB941002900DC63E0099800F054FB88
:100BB00000230022984600230692079300239A46BA
:100BC0006368BFF35F8F5A461A6085F310885346F7
:100BD000002B08D10028C4D10BB03CBC90469946EC
:100BE000A246AB46F0BD089B414618024B4618434F
:100BF000D047626806000F00EFF3108572B61368E5
:100C0000002BFCD0BFF35F8F002F50DB33003B4342
:100C100002D02369002B61D12368DA7B002A07D038
:100C200051008A1819688C4649466244033A51704B
:100C30009A7B002A01D14A469A734A46DA734B4698
:100C4000E168013BCA5C0132CA545B4623616368B8
:100C5000BFF35F8F5A461A6085F3108881E700233F
:100C600000229846002306920793002300209A460C
:100C7000A6E7002902D1002800D096E700216046AF
:100C800000F08EFC43461A685B6806920793434661
:100C90009B689A464346DB689846E3684B44013BB1
:100CA0001B7808931B0203432361002088E7236914
:100CB000002BB1D0069A079B921BBB41002B15DB82
:100CC00059460491012103914946029141460191FF
:100CD000514620000091FFF7B1FEB6E700F05CFA44
:100CE00032003B0012184B41002BE9DA0122034B82
:100CF0005242E5E730120020FFFFFF0FFFFFFF7FAA
:100D000010B5144C6368002B04D00A211248FFF779
:100D10003FFE10BD2300114A1021206800F05AFB4D
:100D2000032000F02DFA032000F000FB03200C4903
:100D300000F04CFAFFF796FC0A4B9C460323237500
:100D4000D0231B061B6860446375074B80006060FE
:100D5000DC60DAE70C0500204C120020D9090010F5
:100D6000450B00104000003430120020F0B54E4614
:100D70004546DE465746E0B585B0019310AB1B787B
:100D800080460393002300269946009243465A6802
:100D9000EFF3108B72B61368002BFCD0BFF35F8F9C
:100DA00043461D68AC7B002C43D067002B683F197D
:100DB000033FDB195A78AA73002A00D1EA7342462E
:100DC0009E705E701E709268494B94460099019A1D
:100DD000E3181B01634419605A600E9A9A600F9AD7
:100DE000DA602B68DB199E705E701E706B7B9A4612
:100DF000002B68D022001900A8686B6898472A6801
:100E0000002853D0534650465B005344D719033B48
:100E1000B870D118D35C002B00D07B7053460C7097
:100E20006B73544550D04346DB681B19013B18785F
:100E300000E0002043465B68BFF35F8F1E608BF3CA
:100E40001088002C51D04B46002B08D100022043C3
:100E500005B03CBC90469946A246AB46F0BD039B0C
:100E6000002B40D00E9B00200F99984703000400F0
:100E70000D000B4337D000290ADA009A019B121BA0
:100E8000AB4100920193002B0ADB039B99467DE75F
:100E900000F082F924184D4100940195002DF4DAF8
:100EA0000123144C5B4200930194EEE753465B0030
:100EB0005344033BD3189C70D119D25D002A00D053
:100EC0005A7053460B706C734346187D009A019B11
:100ED00000F0C2F981460028A5D0434621001868D9
:100EE00000F000FC9FE70020B2E701204042AFE79E
:100EF000FFFFFF0FFFFFFF7FF0B504000D00062688
:100F00007642F717C64636196F4100B584B08F4256
:100F100014D811D000F040F932003B00121A8B4176
:100F2000002B15DC002B3ED02000290000F03EF9FC
:100F300004B004BC9046F0BD8642EBD900260027E1
:100F400000F02AF932003B00121A8B41002BE9DD38
:100F5000002302930193154B3200009314483B0089
:100F6000FFF704FF0028DFDB00239846BC46114A48
:100F7000114F7B6A9C4504D8B96A8E42D4D99C45EE
:100F8000D2D11168EFF3108072B60B68002BFCD041
:100F9000BFF35F8F1368BFF35F8F4146196080F323
:100FA000108820BFE5E7002ABED0D1E70D0A001067
:100FB0000C0500204C1200200040054070B50600D2
:100FC00000F0EAF8FA2204000D00002330000021AE
:100FD000920001F0DFFC00196941002902DBFFF7F4
:100FE0008BFF70BD012001494042F8E7FFFFFF7F02
:100FF000F0B5EFF30583CE46474680B505000C00FB
:1010000085B0002B12D02C4B0020596A8C4203D89B
:101010009B6A0130AB4204D305B00CBC90469946A4
:10102000F0BD611A481E8141C8B2F5E7234E029314
:101030000193234B0200009330000B00FFF796FE54
:10104000031EE0DD20BF7168EFF3108772B60A68F7
:10105000002AFCD0BFF35F8FDAB294463068427B3F
:1010600062451DD0FF221A40510089460168914413
:1010700088464946414403398978002913D0F168EC
:101080001B0A88464244013A1278DBB29A420FD0DA
:101090007368BFF35F8F00221A6087F31088B2E78E
:1010A000FF221A40EBE732699342F1D13161EFE759
:1010B000614600F017FBEBE7004005400C050020FF
:1010C0000D0A0010F0B5EFF30582D6464F464646AE
:1010D0001000C0B51038EFF3108872B6214C2368A9
:1010E000002BFCD0BFF35F8F0123190081401E4D00
:1010F0001F006963AA461D4D29601D4D2E78AC4620
:101100003500C5402F402B4215D05346194D5F6A1C
:1011100083005D59AF4218D3174A8E439B586246ED
:101120001670BFF35F8F0022226088F31088002BB7
:1011300006D0984704E0BFF35F8F276088F31088DC
:101140001CBC90469946A246F0BD0C4B92009C46B2
:10115000624413681360BFF35F8F0023236088F33A
:101160001088EDE7280100D0004005403C700540A4
:101170006C12002050120020A0100020D03F05402B
:1011800010B50100024A0348FFF73AFA10BDC04605
:101190002C90001069120020034B596A0A00986ACB
:1011A000596A8A42FAD1704700400540064A536A9C
:1011B0009942FCD807D1044B02E05A6A914202D10D
:1011C0009A6A8242F9D370470040054070B5040026
:1011D0000D00EFF3108672B61A4A1368002BFCD08C
:1011E000BFF35F8F002D1BD02000FFF759FA16497F
:1011F00081420AD02000FFF75BFA01212000FFF7AF
:101200003DFA0123A340114A1360114BA400E5509D
:10121000BFF35F8F00220B4B1A6086F3108870BDFE
:101220000B4BA200D5500122A2400A4920000B78A6
:1012300093430B700449FFF765FA00212000FFF784
:101240001DFAE5E7280100D0C51000103860054000
:10125000A01000206C120020F0B54F46D64646463E
:10126000C0B507002C4C616A0D00A66A616AA942EC
:10127000FAD18B4208D805D001201CBC9046994673
:10128000A246F0BDB242F7D9EFF3108972B62348F7
:1012900001680029FCD0BFF35F8F01252049BD40C4
:1012A0008C4609781C4C0E002E438846F1B28A46C3
:1012B000614650460870391D1A48890065630A5115
:1012C000B9000B50216A0020294219D0616A080038
:1012D000A66A616A8142FAD18B4219D801D1B24221
:1012E00016D8C24516D00C4B1F201D625D6301232A
:1012F0000740BB400C4A1E381360634642461A70D2
:10130000BFF35F8F0022054B1A6089F31088B4E7A2
:101310000020F5E70120F3E700400540280100D058
:101320006C1200205012002080E200E010B5EFF3B4
:10133000108472B60A490B68002BFCD0BFF35F8F94
:1013400001238340074A0848136202789A430270D7
:10135000BFF35F8F00230B6084F3108810BDC0467D
:10136000280100D0004005406C12002070B5050037
:101370000E001400002924D0002A24D080686B6855
:101380009847296800280ED063001B197200033BA0
:101390009219CB18033A9E7088188A5C002A14D1DF
:1013A000047030000EE073009B196200033B1219B9
:1013B000CB18033A9C7088188A5C002A00D05A70B7
:1013C0000670200070BD0800FCE75A700470300001
:1013D000F8E7C04630B583600023CCB243730133D5
:1013E000047342608373C4730D000068012C06D936
:1013F000421C0133DBB2137003329C42F9D1FF214E
:1014000029404B005918002340180338437030BD61
:10141000F8B5CE46474606000C0080B5002907D037
:101420004D0003686D18033D5A195778002F04D1F9
:1014300020000CBC90469946F8BD7900C9190339C3
:101440008846434459788946002159705170736821
:101450003A002100806898473368002814D042463B
:101460009A18947059195B5D002B00D053700F705F
:10147000270049463000FFF7CBFF3900020030005B
:10148000FFF774FF0400D3E7424641465D19AF7091
:101490009A185B5C002B00D06B701470E9E7C046B3
:1014A000F0B557464546DE464E46E0B50D006B00AA
:1014B00001685B19DF1E0400C85D83B00192CA1980
:1014C000002850D043001B18033BCB185E78B4466D
:1014D000002E1AD1019E002E42D0E67B002E04D0B1
:1014E00073009B19CB18033B5D70A37B002B00D1CD
:1014F000A573E57300282FD10023537003B03CBCC3
:1015000090469946A246AB46F0BD72006244033A4B
:1015100089184A78904600224A7091465A70010014
:1015200032002000FFF722FF43468246002B07D0FF
:101530005B0021684344033BCB185A78002A16D13C
:10154000424651462000FFF711FF2168019BCA194E
:10155000002BC2D10028CFD043001B18033BCB186F
:1015600000219970C8E7019B002BB6D1C4E7500059
:1015700080180338091848788346484648705870E0
:1015800041462000FFF7F2FE594680462000FFF753
:101590003FFF414602002000FFF7E8FE8046CFE70C
:1015A000F0B54E464546DE465746E0B5467B04005C
:1015B00075000068AD19033D83B00191415D42198A
:1015C000002952D04B005B18033BC3185F78BC4620
:1015D000002F1CD1019D002D44D0E57B002D04D0AF
:1015E0006B005B19C318033B5E70A37B002B00D11B
:1015F000A673E673002931D1002330005370617364
:1016000003B03CBC90469946A246AB46F0BD7A007A
:101610006244033A80184278934600224270914611
:101620005A7020003A00FFF7A1FE5B468046002B6F
:1016300007D05B0021685B44033BCB185A78002A33
:1016400017D15A4641462000FFF790FE019B01004A
:1016500020684219002BC0D10029CDD04B005B1867
:10166000033BC31800209870C6E7019B002BB4D140
:10167000C2E7500080180338091848788246484667
:101680004870587059462000FFF770FE5346834655
:10169000002B07D05B0021685344033BCB185A78DA
:1016A000002A06D1594652462000FFF75FFE8346C6
:1016B000C7E7500080180338091848464F7848702B
:1016C000587051462000FFF751FE39008146200036
:1016D000FFF79EFE494602002000FFF747FE8246C4
:1016E000E0E7C04670B5040000292CD0437B8B4254
:1016F0002ED0056848004018033828188278002A40
:1017000021D053009B18033BEA5CEE188A4202D1B9
:101710001BE0002A08D053009B18033BEB185A78B3
:101720008A42F6D142785A700023012283704370B6
:101730002000FFF7B5FE617B02002000FFF716FED8
:101740006073012000E0002070BD43783370EBE748
:1017500001221900FFF7A4FE60730120F4E7C046E0
:1017600030B50C2083B000F0B9F9FEF741FF002836
:101770000ED0994B994A1A605A609A60DA601A61E1
:101780005A619A61DA611A62954A5A6203B030BDB1
:10179000944CA06700F0AAF90122934B1A60636C85
:1017A000012BFCD10322914B1A608E4A936B012BC3
:1017B000FCD1013301218E4A8E480093043300F09E
:1017C0003DF905238C4A009301218C4800F036F93D
:1017D0008B4B5A68FF2A02D8802252005A6080221E
:1017E0007D4C824B21691201854D1A60002907D07A
:1017F000606900F0FDFA431C5800C0180338FDD2A0
:10180000E0217F4B02201A681140802252012A43B6
:1018100011601968484003210140116004219A6851
:101820001142FCD08022802192012A4309011160DB
:10183000802252005A60734B2361734B5968FF2911
:1018400000D85A6003227048674B01211A600200D9
:1018500093681942FCD0E02513681D4080235B018A
:1018600003431D6012684A400321114019600221A0
:10187000654A93681942FCD0802380219B01034371
:10188000090119608021614B490051606361604B1F
:101890005A68FF2A00D8596080225E4BE169120124
:1018A0005B4D1A60002907D0606900F0A1FA431C63
:1018B0005800C0180338FDD2E02255490B681A4081
:1018C00080235B012B431A60802380229B012B43E2
:1018D00012011A608022414B52004A60E3614E4B74
:1018E0005968FF2900D85A6080224C4B216A1201A6
:1018F000494D1A60002907D0606900F079FA431C4D
:101900005800C0180338FDD2E02243490B681A4042
:1019100080235B012B431A60802380229B012B4391
:1019200012011A60802380225B004B602B4BD20295
:1019300023623B4B5968914200D25A608022394B56
:10194000616A1201364D1A60002907D0606900F003
:101950004FFA431C5800C0180338FDD2E02230492A
:101960000B681A4080235B012B431A60802380227E
:101970009B012B4312011A608023DB024B60184B42
:101980006362294B5A68FF2A02D8802252005A60AB
:101990008022264BA1691201234D1A60002907D02D
:1019A000606900F025FA431C5800C0180338FDD2C6
:1019B000E0221D490B681A4080235B012B431A600B
:1019C000802380229B012B4312011A6080235B003D
:1019D0004B600E4BA361D9E6B0110020006CDC0215
:1019E0001BB70000008000403CB0004030B0004019
:1019F000002F685900800240008C864700C00240DA
:101A000030800040001BB7003C8000404059730705
:101A10005480004054B000406080004060B00040FE
:101A20006C8000406CB000404880004048B00040EE
:101A3000014B8000C0587047B0110020F8B5040079
:101A4000214817001D000E0000F0D2F901003800F7
:101A500000F0CEF9069A2B04120313432268002AE1
:101A600021DB1A4AA21851424A41802149018C4681
:101A700052420A40164962440A6016490A601649F1
:101A800017008D68AF43FBD1C021221D890111438E
:101A900021222660A0600A602268002AFCDAE36046
:101AA00008230B60F8BD3F2221680A40B242D8D11A
:101AB000A2681205120D8242D3D1EE21E268C9025A
:101AC0000A409A42CDD1EDE7001BB7000040FDBFB0
:101AD00000E0004000F0004000C000408023024AC7
:101AE0009B000343D362704700800540AA23064A47
:101AF0001B0113602F230549D360054B1960536800
:101B0000002BFCDA7047C0460040024000B0FA00EB
:101B1000006002402C4B2D4A70B51A602C4A2D4BA8
:101B20002D491A6010008B689843FBD12B4C2C4B2D
:101B30009C4209D2013B1D1BAD080135AD002D199A
:101B400008CC9847AC42FBD1FFF70AFE254A214B4F
:101B50001A60214A9368DB018033FBD14022224B7B
:101B6000224C234D9A675A671A67DA66AC4208D24C
:101B700023682000002B21D00834FEF71FFFAC4261
:101B8000F6D31C4C1C4DA168C022280000F084FF35
:101B9000A560FEF759FDFEF7E9FEFFF7B1F8174C17
:101BA000174B9C4209D2013B1D1BAD080135AD000E
:101BB0002D1908CC9847A542FBD170BD0834FEF71B
:101BC000EFFEAC42D4D3DCE700E00040BFCDFBFE2B
:101BD000FE7F3C0000F0004000C00040340F0020B9
:101BE000440F0020FFFFFF0100F001402C0F0020F8
:101BF000340F002000ED00E000000020440F002022
:101C00004C0F002000BEFDE7094A030010680028C1
:101C100005D00849C3188B4207D81360704706489F
:101C20000449C31810608B42F7D901204042F5E700
:101C30002812002000000420E414002010B5FFF753
:101C4000E1FFC04610B50C0082B01900002A0AD08E
:101C5000064B0192009302002300054800F032F881
:101C60000120FFF7CFFF034B1A00F2E7509000105E
:101C7000609000105C9000100FB400B5084883B06D
:101C800001F030F8049B002B07D005A91800019142
:101C900000F038F8034801F025F80120FFF7B2FF03
:101CA00090900010508F001010B50148FFF7E4FF2E
:101CB000A090001010B5002800D110BD00F0C6FFA4
:101CC000FBE7C0460FB410B50C4984B006AA08CA99
:101CD0000C680392002C0BD000920122084852425B
:101CE00002A9A047012004B010BC08BC04B01847EA
:101CF000180000F0F7FF0020F5E7C0462C12002086
:101D0000B51C001010B5094A0300146884B0002CFB
:101D100008D0012200910648524203A9A0470120A1
:101D200004B010BD00F0DEFF0020F9E72C12002007
:101D3000B51C001001480421014B18474005002044
:101D4000651D0010142310B50100188804331B888A
:101D5000984710BD162310B50100188802331B8860
:101D6000984710BDF0B5C64600B5002916D014231B
:101D70000400012598461827890046184346216823
:101D800018883B88984701C4431E9841404205404B
:101D9000A642F3D1280004BC9046F0BD0125F9E726
:101DA000124A936F9B0815D29066D166002905D020
:101DB000FFE7FFE7FFE7516F106F704704B5802121
:101DC0000906C2175140002800D0C84307F07CF82C
:101DD000002104BDF0B5146E556E576F166FFFF7F6
:101DE000E3FF1466556657671667F0BD000000D024
:101DF000114A936F9B0813D210665166002905D0D3
:101E0000FFE7FFE7FFE7516F106F704704B5002849
:101E100001D00020C04307F057F8002104BDC046A0
:101E2000F0B5146E556E576F166FFFF7E5FF146629
:101E3000556657671667F0BD000000D094464A4AC1
:101E4000926F9208624601D228E0C046F0B5464E35
:101E5000346E756E776F366F00F020F89446424A04
:101E600014665566576716676246F0BD94463E4A4B
:101E7000926F9208624601D254E0C046F0B53A4EE5
:101E8000346E756E776F366F00F04CF89446364AB4
:101E900014665566576716676246F0BD002B24DB53
:101EA00011D000293EDA00B5C943404200D10131CA
:101EB00000F038F8C943404200D10131DB435242BF
:101EC00000D1013300BD002AEBD1002801D1002947
:101ED00005D00020C90FC90701D1C043410800B592
:101EE00006F0E2FF0022002300BD00B500290ADB56
:101EF000DB43524200D1013300F014F8C9434042A1
:101F000000D1013100BDC943404200D10131DB4362
:101F1000524200D1013300F005F8DB43524200D1B8
:101F2000013300BD002923D1002B18D1002A0CD089
:101F3000BC460D4F38667A6600210023FFE7FFE7B5
:101F4000FFE77A6F386F67467047002801D007486F
:101F5000010000B506F0A8FF0022002300BD02002A
:101F60000B00002000217047000000D0FFFFFFFFA2
:101F7000002B00D0BFE0130C28D1002AE7D080B49A
:101F8000114F39667A66FFE7FFE730B4040C7B6FC8
:101F9000396F1B0423433B667A66FFE7FFE7FFE7E1
:101FA000C04684B27B6F3D6F1B0423433B667A6659
:101FB000FFE7FFE7C04600232C042D0C7A6F386F33
:101FC00000196941B0BC7047000000D0F0B59446DC
:101FD0000025140E01D112020835140F01D112018F
:101FE0000435940F01D192000235D40F01D1520073
:101FF0000135D40B0134254F7C66254C3C660E0C14
:1020000093B2FFE7FFE7FFE73C6F6643360C7703C9
:10201000BE467343DF0B5B04C01AB941130C734314
:10202000DB18C91ACE086643360CB64493B2734324
:102030001F0F1B01C01AB941130C73431F0B1B0563
:10204000C01AB941860D8F023E436643360C092DF6
:1020500024DB520A7243801A7703460A6643360C21
:1020600016235B1BDE40DF40BF1964466643821BBC
:102070007046043506330100D940A840C01900D38A
:102080000131A24206D20023F0BD0000000000D0C2
:10209000FFFFFFFF121B0130F3D3F1E709277F1B7E
:1020A000FE406446A2B27243801A00D20139220C6B
:1020B0007243130C1204821A99410B0070460435C6
:1020C00013370100F940A840801900D30131002BDB
:1020D00002D1A2420AD2F0BD013000D30131121B5D
:1020E000FAD2013BF8D1A24200D2F0BD013000D3B8
:1020F0000131121BF7E7F0B51C0C00D080E00CB4E6
:1021000000251C0A04D11B02160E334312020835A7
:102110001C0B04D11B01160F3343120104359C0B19
:1021200004D19B00960F334392000235DC0B02D1A1
:1021300092185B4101351C00971864410134464FE9
:102140007C66464C3C660E0CFFE7FFE7FFE7C046A7
:102150003C6F6643360C7703BE4697B27743C01B8D
:1021600000D20139C01B00D201399FB27743C91B8D
:10217000C91B170C77437E04FF0B801BB941CE08A7
:102180006643360C0C2D33DBB644120B1F053A4365
:102190001B0B97B27743C01B00D201399FB2774324
:1021A000C91B170C77433E043F0C801BB941860DB9
:1021B0008F023E43664329277F1BFE400C3D774636
:1021C000AF40BF1930BCA2B2ABB272437343801AA6
:1021D0009941220C7243130C1204801A9941020097
:1021E0000B000137001BA941F9D2781E0021F0BD78
:1021F0000C277F1BFE4077467F0BAF40FF19E0E7BF
:1022000000245D1C07D0144F7D663966FFE7FFE7A9
:10221000FFE7FFE73C6F95B29EB265436643401B04
:10222000B141150C1E0C6543664336042F0C3E432A
:102230002D04401BB141994204D202000B00200042
:102240000021F0BD01D19042F7D3801A99410134A9
:102250009942F2D3F6E70000000000D0FFFFFFFF35
:1022600048404140484018B41B4B5B68FC46019312
:1022700008BD04DF2325001018B4174B1B68FC466B
:10228000019308BD00DF2D2500109446134A926F7C
:10229000920809D2624618B40F4BDB68FC460193E2
:1022A00008BD0CDFE52700100C4AF0B5146E556E22
:1022B000576F166F6246FFF7EEFF084A14665566C1
:1022C00057671667F0BD18B4034B9B68FC46019333
:1022D00008BD08DF8926001074120020000000D01D
:1022E000FFB550404240504059404B40594000E0FB
:1022F000FFB5154F4C00640D03D0BC4204D10C0354
:1023000014D80020090D09055C00640D03D0BC42FF
:1023100004D11C030AD800221B0D1B0501264B40CB
:1023200009D44B4003D58B4200D18242FFBD994274
:10233000FCD19042FFBD0B43DB1803431343F5D0A0
:10234000C9434918FFBD0000FF07000000B5FFF7B3
:10235000CFFF01D0002000BD012000BD00B5FFF778
:10236000C7FF804100BDC04600B5FFF7C1FF01D9DE
:10237000002000BD012000BD00B5FFF7B1FF01D96D
:10238000002000BD012000BD00B5FFF7A9FF80417E
:1023900000BD012040054A00121804D85A00121846
:1023A00001D80020704701207047002070470000CE
:1023B0000021002805D17047C1174840401AFAD0C3
:1023C000C90713B5064B1B6898470CBC441CA240B8
:1023D0001005120B0349091B09051943114310BDD0
:1023E000481200201F04000010B54C00620D80232D
:1023F000D218DB00D21A5B057E2A10DD9E3A13DA72
:10240000CC170903490819435242D14064000134F2
:102410001532202A05DAD0400843604310BD002061
:1024200010BD0846604310BDC80FC018013810BD6C
:10243000132370B51D78012D15D010DD2748FFF747
:1024400089FC274C01008022200000F025FB022D92
:1024500006D02448FFF776FC234B186070BD204C53
:10246000224AA264F5E72E001D4C204AA3085B42D5
:102470001E401D422FD0330022602020B100611881
:10248000801B0A604A608A60CA600A614A618A6188
:10249000CA610A624A628A62CA620A634A638A63DA
:1024A000CA630A644A648A64CA640A654A658A65BA
:1024B000CA650A664A668A66CA660A674A67400843
:1024C000102803D18A67CA67A264C2E71E339B0043
:1024D000E250A264BDE70023CFE7C04653440000AA
:1024E000741200204C33000048120020F124001028
:1024F00007B5604601880A0A0230DF2AFAD1C9B25C
:10250000820804D3028840880004104300E0006879
:10251000014A5050039007BD741200200FB403BC51
:102520000CBCF0B50124E407634000E0F0B50C0DED
:10253000CF0F661E3605891B640503D3C94340428D
:1025400000D30131640D03D0661CF60A07D0E41BEA
:1025500000207F00791C89078912803C24031D0D0F
:10256000DF0F6E1E36059B1B6D0503D3DB43524206
:1025700000D301336D0D03D06E1CF60A07D0ED1B9E
:1025800000227F007B1C9B079B12803D2D032F1B8D
:10259000661B58D4A446202E46DA20371400BC40CF
:1025A0001D00BD40F24033412A4380185941CB0FF2
:1025B00005D0C943C04300226442504151416246A4
:1025C0004D0D28D10D0D07D100281FD024194041F1
:1025D0004941013A0D0DF9D0640006D3013000D312
:1025E0000131002C01D140084000013A0BD4941C69
:1025F000E40A04D112051144DB071944F0BDD907E0
:10260000204B194300E0D9070020F0BD0029DDD19F
:10261000002CDBD1F0BD0132C6074008CD072843AE
:102620004908002EE1D0D9E73C2E29DA203E403778
:102630001400BC4000D00124F24014431A00BB40F7
:102640001C43D317ACE7AC46202F08DA2036040031
:10265000B4400D00B540F84039412843A5E73C2F70
:102660000CDA203F40360400B44000D00124F8408A
:1026700004430800B1400C43C117EAE710001900F9
:10268000002494E70000F07FF0B50C0D661E3605BF
:10269000891BE60A6405640D02D0651CED0A04D0AE
:1026A000002001210905803C2403A4461C0D671E5F
:1026B0003F05DB1BE70A6405640D02D0651CED0ACB
:1026C00004D0002201231B05803C2403774064448E
:1026D00097B484B296B27443070C7E43150C6F43D3
:1026E00080B26843361802D3012000043F1830043A
:1026F000350C00197D41844688B29AB250430C0CC7
:1027000062431F0C7C438EB27E43921902D3012692
:102710003604A4191604170C3618674101BC81B29F
:102720009AB25143040C62431B0C5C4380B2584381
:10273000121802D30120000424181004130C4018AE
:1027400063412D185E410020474106BC88B293B218
:1027500058430C0C6343120C544389B251435B1829
:1027600002D301210904641819041A0C09186241E2
:102770006D1856410020474118BCF902720D1143F3
:10278000F0026A0D1043ED020A0D03D16D194041AC
:102790004941013B124E9B1B7600B3420ED26D00A5
:1027A00007D30130002671416646354301D1400808
:1027B00040001B05C918E4072144F0BD0BDA0133C2
:1027C00006D1013004D101314F0D01D04908F2E7A3
:1027D000E1070020F0BD013631050020EBE70000E5
:1027E000FF030000F0B51C0D671E3F05DB1BE70A69
:1027F0006405640D02D0661CF60A04D00022012391
:102800001B05803C2403D0252D060026F6432E66AA
:102810001E096E66CE0FF619B44649004F0D02D060
:102820007E1CF60A03D000200021403F3F033E1BE0
:10283000B600B444013F7F05C91B49082E6F01361D
:1028400076089C02950D25437543ED137543AD1332
:1028500001356D10F603761B0CB4CC02450D2C43EC
:10286000A2B2B3B25A43270C7B43350C6F43A4B2D8
:102870006C431B1902D3012424043F191C041D0CB2
:10288000A4187D4124196D41009A91B2ACB2614304
:10289000170C7C432B0C5F4392B25A43A41802D30B
:1028A00001221204BF182204230C52187B41019C00
:1028B0006C431B19520ED9010A434401A01A81B27C
:1028C000B2B2514303145A43360C734387B2774371
:1028D000D617D21900277E4136049B191704160C0F
:1028E0007F185E417316ED18F301002680337541A1
:1028F000A90F06D16400690AE8055B0A184309D2EA
:102900002FE00422944480337541A90AA8059B0A4C
:10291000184326D3404149412404009A019B0D00ED
:102920005543641B4343E41A95B286B27543170CB2
:102930007E43030C5F4392B25A43B61802D301227E
:102940001204BF183204330C52197B4152429C418D
:10295000002C02D40022013051414008CA07104324
:10296000490802B06246D7079210084BD218084BAC
:102970009A4203D212058918C919F0BD0020002A15
:1029800001DC3900F0BD01331905F5E7FD03000056
:10299000FE07000051434343C9188C46110C83B213
:1029A0004B4310B4040C614392B280B25043624373
:1029B0001C041B0C001910BC59411304120CC01844
:1029C0005141614470470000132310B512481C7830
:1029D000FFF7C0F90100012C0AD003DD80220F4867
:1029E00000F05AF80E48FFF7ADF90E4B186010BD15
:1029F0000A4C5422200000F04FF80B4B6365A3658E
:102A0000E36523666366A366E36623676367A3677C
:102A1000E3672362E361E5E7534600007413002097
:102A20004C330000481200202D2A001007B56046E4
:102A300001880A0A0230DF2AFAD1C9B2820804D317
:102A4000028840880004104300E00068014A5050AA
:102A5000039007BD7413002010B5040001F07CFD45
:102A6000002804D0034B04199C4200D810BD024832
:102A7000FFF702F900000420AC9000100148042187
:102A8000014B184750050020651D0010014B1B68C5
:102A90001847000050050020014B5B6818470000F4
:102AA00050050020030010B508001B68110098476E
:102AB00010BDC046F8B54746CE4680B5437D0700F9
:102AC0000D001600002B37D000240020002A1EDD48
:102AD0004B1E98461B4B9946002C2BD043461B5D42
:102AE0000D3B5A425341DBB22A5D0A2A13D001340E
:102AF000A642F1DC864203DD311A3B68281898476C
:102B0000AD19013D2B780D3B5A4253413B750CBC2E
:102B100090469946F8BD002BE9D1A04203DA211A6C
:102B20003B6828189847484602213B68013498477B
:102B30002000DDE73B7DD7E70368110028009847B8
:102B4000E5E7C0461C910010F0B5DE4657464E46FC
:102B50004546E0B585B017001C0006000D00FEF7E5
:102B60001BFB0023324A12184B41002B5BDB31491F
:102B700008008A4606F0B8F901906B1C03D13000BA
:102B800002F088F90500002C28D12B4B98462B4BDE
:102B90001C68002C15D0002F23D1294F02E0246996
:102BA000002C0ED02368002BF9D03B68002B01D0FD
:102BB000A342F4D120002A003100C0472469002C30
:102BC000F0D1019B002B2AD1681E8541E8B205B0E7
:102BD0003CBC90469946A246AB46F0BD194B984680
:102BE000D5E7174B994602ABDF1D0A239B4602E04F
:102BF0002469002CE5D02368002BF9D04B461B68D4
:102C0000002B01D0A342F3D12A0031002000C0479D
:102C10005B460122390020003B70C047E8E7504680
:102C200006F03AF9D0E70122074B52429FE7C0462F
:102C300040420F002C0F0020B52A0010181200206F
:102C40001C120020A52A0010FFFFFF7FF0B5CE4622
:102C5000474680B583B06B460500DE1D3070FEF739
:102C60009BFA00231A4A12184B41002B2CDB1949FE
:102C70000800884606F038F9174B07001C68002C3E
:102C800016D0164B994602E02469002C10D0236818
:102C9000002BF9D04B461B68002B01D0A342F3D187
:102CA000200001223100FFF705FF2469002CEED13E
:102CB000002F05D1280003B00CBC90469946F0BD0A
:102CC000404606F0E9F8F5E70122054B5242CEE70F
:102CD00040420F002C0F0020181200201C12002070
:102CE000FFFFFF7F70B5040002F0D4F8002301005D
:102CF000050001222000FFF727FF084B1C68002C6D
:102D000006D06368002B05D098472469002CF8D1C1
:102D1000280070BD2469002CF3D1F9E718120020B7
:102D200010B5024800F004F810BDC0464012002063
:102D300030B5002589B004000922002101A80095C2
:102D4000FFF7A4FE0922002105A80495FFF79EFEC7
:102D50004B236A466846137004A90D2206F094F8C6
:102D60001521082220006944FFF796FE09B030BD06
:102D7000F0B545468046464B574643445A42534178
:102D80008022DE464E4692029446E0B55B42414ABE
:102D90001B0463441360404A8A46404985B013606F
:102DA0001D008A689543FBD10620FEF741FE43468D
:102DB0005A6802231A4001924246043211000292DC
:102DC000C022920111430B6081465346802003913B
:102DD0005146DF0D5E028A029B0D0221400005E094
:102DE000914507D392197B4181424AD00C000231B0
:102DF000002BF5D02B00802627024D463F1B99461D
:102E0000760002E03F1B012E3DD039002800B3467A
:102E1000013EFEF7EDFF8245F4D259466143A946D3
:102E2000350243461C611B6880225D40FF231B0264
:102E30001D40434652011A438023029C01989B0186
:102E40001C431560206002254046039E40683560A3
:102E500046460727366828407740CF263E40166012
:102E60002060404624301843032303604846256011
:102E7000FEF7BEFF05B03CBC90469946A246AB4665
:102E8000F0BD0C00B6E74B462100A9461D00C8E77F
:102E90000040FCBF00E0004000F0004000C00040E7
:102EA000F8B5DE4657464E4645468346E0B5052012
:102EB0000C00FEF7BDFD0600600821008019FEF73A
:102EC00097FF430098468044070005214046FEF7DF
:102ED0008FFF3B1A9A46204B8146700080199C4216
:102EE00034D81E49FEF784FF451C5B461C6800234E
:102EF000E36622680433534006221A4080235B01B4
:102F000023431A605346E3614B4623624346012044
:102F10004F2B03D950214046FEF76AFFA023220021
:102F2000E0508023E06F7C3245402D045B01134369
:102F30002D0C1D60012339003000E366FEF758FFB9
:102F40003CBC90469946A246AB46F8BD0449FEF704
:102F50004FFF451CC9E7C0463F420F0080969800CE
:102F600040787D01104A70B5821A53425A410723B6
:102F700052429A430D4B10321A600D4B0D4C1A60A1
:102F80001500A3689D432B1EFAD166240268FF3406
:102F90000571D5661460633C8833FF3CD563956347
:102FA000D450FFF77DFF70BD6005002000E00040B9
:102FB00000F0004000C00040F0B54546DE465746F0
:102FC0004E46E0B583B005000CA800782C68844616
:102FD0000020E06661600121E166002B55DD591E8D
:102FE0008846012761464F4010218A467031894644
:102FF00046467F0200930021002803D129794B1E09
:103000009941890200239846864236D0135C1943C1
:1030100043461943009B216198465346616B0B421E
:10302000FBD0434600934B46E3589846002B0ED105
:10303000864224D0009B01308342DCD163462B7151
:1030400003B03CBC90469946A246AB46F0BD616DCC
:10305000012101928022636B92001342FAD0019AFF
:10306000236E0029E6D04146002903D0CB0701D4C6
:103070000B07E3D402204042E0E7B846C6E76346C8
:10308000002BD7D100210192E4E70020D6E7C0460B
:10309000F0B5D6464F464646C0B5050008A80078AC
:1030A0002C6884460020E06661600121E166002B07
:1030B0003ADD591E8846012661464E40802149006E
:1030C0008A46803989467602616F1029FCD0002833
:1030D00022D0802700217F00404512D0276102E0E6
:1030E000A16F002911D149466158616D0029F7D0BF
:1030F0000220404263462B711CBC90469946A24672
:10310000F0BD574631430F43E8E7216911540130C0
:103110008342EFD02C68D7E729790029D9D0A0279E
:103120008021FF00C900D7E70020E3E770B5224CFB
:1031300022492068FFF71CFEC02102202368890174
:103140001C1D21435A68086019680240CD3088432D
:10315000802149010B431860802301259B012343F3
:103160001A60174B01211888FDF7F4F9154B01215E
:103170001888FDF7EFF9144C2088FDF71BFA2A0098
:103180002388D0249A40114E2406308862626261FE
:10319000FDF710FA2A0033880D4E9A400023F05EA6
:1031A00062626261431C06D0FDF704FA0022B35E3E
:1031B0009D406562656170BD74050020005A620221
:1031C0006E05002070050020680500206A050020BB
:1031D0006C050020F0B5DE464E46454657460124B4
:1031E000E0B589B0FFF7A2FF22006C4BD0251B8809
:1031F0006B4E9A402D06AA610022B35E002B00DAC6
:10320000A0E022009A400520AA61FDF7D7FE002227
:10321000B35E96209C406C61FDF7D0FE06AA0723A2
:103220009446634403935F4B05935F4B9B4618237F
:103230000293153B0193023B9946D0231B069A4605
:1032400002235A4CEF229846013408E0029B013BCE
:10325000DBB20293002B68D06378227801934F4948
:10326000A31C04930B88494699400B0051464846DD
:103270008B61059D039B44461A702B8880269840DD
:1032800088615846C02300689B014168021D1343B2
:103290001C602140C72403687601CF2763403400B7
:1032A0003B400443236080239B011A437F24116029
:1032B0000122039905F010FE4A46019BC0211C40E3
:1032C0002B8845469A401300524653615A4610686F
:1032D0004246436889011340021D11430D60C72512
:1032E0000168064369408025AD0115430F403760F2
:1032F0002B60049D2200290005F0EEFD274AAC4614
:1033000013884A469A401300524653616B461B7914
:1033100064445BB2002B99DA9620FDF74FFE029BC6
:10332000013BDBB20293002B96D1F022204B1A8096
:10333000204B50321A8009B03CBC90469946A246B8
:10334000AB46F0BD06AB9C460726164B664405937C
:103350001B8834709C40144B022118689B46C02384
:1033600003969B01AC61051D2B43426819600468FC
:103370000A40C5316140CF2480230C4080219B014D
:10338000490101432B430C601A603100012205F012
:10339000A3FD9620FDF712FE49E7C0466805002010
:1033A0006C0500206A0500207405002020910010A3
:1033B0007614002078140020F0B55746DE464E46BD
:1033C00045460723E0B585B06B449A460323184071
:1033D0003E4B1870022869D0032800D173E0012801
:1033E00066D0482352461370F022394B1A80394B6D
:1033F00050321A8001242200374BD0251B880F2120
:103400009A4036232D06AA61220069440B70334B83
:10341000CF271B88B8469A40AA6102229146304BBA
:103420004E4618689B4643681A40C02394469B0149
:10343000021D13431E600368C53673403B4080275E
:103440007F013E000643336080266346B601324367
:103450001360012205F040FD2100204B1B8899409C
:103460005B4618684B4669614268011D1A40C023DB
:1034700094464A469B010B431A600368C532534089
:103480004246074313403B6063460E433360514658
:10349000CE3A05F021FD104B1B889C406C6105B0B5
:1034A0003CBC90469946A246AB46F0BD882399E7BE
:1034B000282352461370A022054B52001A80054B58
:1034C000503A1A8096E7E823F3E7C04674140020C8
:1034D0007614002078140020680500206A0500207A
:1034E00074050020F0B5DE4657464E464546E0B529
:1034F00001250C0076499C460B882900D02699406E
:10350000634687B03606B1610193E1182A2324048B
:103510000139214309BA059102A9CB716D49070010
:103520000B888B462900994080183F0401383843A6
:10353000C027022400BA04900092B1616649BF011D
:1035400008688A46021D174341683C60C727036824
:1035500021407B400837B9463B4080277F01B84671
:1035600007433B6080239B011A43116002A901229B
:10357000073105F0B1FC59460B882900994071616B
:103580005146C023C72708689B01021D13434168A9
:103590001C60036821407B404F463B404746074341
:1035A0003B6080239B011A43116004A9042205F0AB
:1035B00093FC2B2302A9CB7159460B882900994013
:1035C000B1615146C023C72708689B01021D134300
:1035D00041681C60036821407B404F463B404746A2
:1035E00007433B6080239B011A43116002A901221B
:1035F000073105F071FC59460B882900994071612B
:103600005146C023C72708689B01021D1343416828
:103610001C60036821407B404F463B4047460743C0
:103620003B6080239B011A43116005A9042205F029
:1036300053FC2C2302A9CB7159460B8829009940D1
:10364000B1615146C023C72708689B01021D13437F
:1036500041681C60036821407B404F463B40474621
:1036600007433B6080239B011A43116002A901229A
:10367000073105F031FC59460B88290099407161EA
:1036800051460868071DBC46C02763464168BF0114
:103690001F433C6021404C46036880279C43220026
:1036A0004446044322606446019B009ABF012743BD
:1036B0005A433960109905F01FFC054B1B889D404B
:1036C000756107B03CBC90469946A246AB46F0BD3A
:1036D000680500206A05002074050020F0B5DE466C
:1036E00057464E464546E0B587B001256B46DA8021
:1036F0002A00704BD0261B8800049A40030C184304
:103700000B043606190CB26119436A462A23D37397
:103710002A00694B00BA9B461B8804909A40674B6D
:10372000022418689A46C023C72709BA05919B014D
:10373000B261021D9946134341681C600368214031
:103740007B4008373B4080277F01B84607433B60FA
:1037500080239B011A430F236B441160190001223F
:1037600005F0BAFB5B462A001B88C7279A405346E0
:1037700018684B467261021D134341681C60036860
:1037800021407B4008373B40474607433B6080234E
:103790009B011A43116004A9042205F09DFB6A46AF
:1037A0002B23D3735B462A001B88C7279A405346B6
:1037B00018684B46B261021D134341681C600368E0
:1037C00021407B4008373B40474607433B6080230E
:1037D0009B011A430F236B4411601900012205F06D
:1037E0007BFB5B462A001B88C7279A405346186814
:1037F0004B467261021D134341681C6003682140FF
:103800007B4008373B40474607433B6080239B0192
:103810001A43116005A9042205F05EFB6A462C23B9
:10382000D3735B462A001B88C7279A405346186803
:103830004B46B261021D134341681C60036821407E
:103840007B4008373B40474607433B6080239B0152
:103850001A430F236B4411601900012205F03CFB51
:103860005B462A001B8880279A405346186872617D
:10387000031D9C464B4662461343CF2241681C60A1
:103880000368BF019A43434603431A6063461F43DC
:103890006B46214039600122991D05F02DFB054B37
:1038A0001B889D40756107B03CBC90469946A24676
:1038B000AB46F0BD680500206A05002074050020B5
:1038C000F0B5DE4657464E464546E0B5554B564A9E
:1038D0009A4612880021595E544B8BB09946934604
:1038E0001B880491002976DD013B1AB2D1175318C9
:1038F0004B409BB200930792131C002A00DD00236B
:10390000079918B2CA430B00D217134005931B1A2C
:103910009AB21BB20992DA0FD3185B100893444B8A
:10392000002798460690009B002B67D0059B069ABF
:1039300093424BDB14003D000293099B089E0193C8
:103940003C4B03933B005F469B4626E043461A6888
:10395000002A47D0002D10DB002C0EDB53461B88BD
:103960009D420ADA494609888C4206DA63435B19AC
:103970005B009F520122304B1A70B3B2002E07DA5F
:10398000039A9446019A6544944663442DB21EB24C
:103990000134029B24B2A34215DB009B002BD5D13E
:1039A00043461A68002A23D0002CE6DB002DE4DB16
:1039B00053461B889C42E0DA494609888D42DCDA8E
:1039C0006B431B19D4E75B46BB461F000137049BC2
:1039D0003FB2BB42A7D10BB03CBC90469946A24631
:1039E000AB46F0BD3A0021002800FFF777FEC4E7A0
:1039F0003A0029002000FFF771FEBEE7079B002B6D
:103A000008DD0023019301333C00002600250297C6
:103A1000039397E700233C001E001D0002970193CB
:103A20008EE7C04676140020601200207814002033
:103A300024120020FFFF00006A120020F0B5574654
:103A40004E464546DE460400E0B5170085B00EAA96
:103A500012880E0003925A1AD51752196A409046DE
:103A60003A1BD51752196A4091461800BC46A24627
:103A70004246C84506DD380021001F0034004A4692
:103A800063465646BC4209DD0A1AD11752184A400D
:103A900031001E000B0021003C000F003D1BA9B2AD
:103AA0002DB20291E90F4D1901216D100191B34220
:103AB00001DC304B019393B29A462F4B9B463B005F
:103AC0004746984627E0002A47D0002E11DB002CFD
:103AD0000FDB2A4B1B889E420BDA294909888C424E
:103AE00007DA634303999B195B0099520122254B26
:103AF0001A705346EB1A9AB21DB21B0407D5019BEC
:103B00009C46029B66449C46624436B215B2013420
:103B100024B2A0451ADB5B461A684F45D3DC002A65
:103B200021D0002CE5DB002EE3DB144B1B889C42EC
:103B3000DFDA134909888E42DBDA734303991B19D4
:103B40005B00995201230F4A1370D2E705B03CBCC9
:103B500090469946A246AB46F0BD21003000039A3C
:103B6000FFF7BCFDC5E731002000039AFFF7B6FD63
:103B7000BFE7C046FFFF000024120020761400209B
:103B8000781400206A12002000B5013A83B01218A0
:103B9000009312B20B00FFF751FF03B000BDC04607
:103BA000F0B557464546DE464E46E0B59FB09846CE
:103BB00028AB1B8810909A4629AB1B7803910C9375
:103BC0002AAB1B781493B24B1B68002B00D169E120
:103BD00019895868521A1B68D2B2D2000D93835AC1
:103BE00081180B938B780A93CB7817930523CB56C8
:103BF0001A930623CB5618930C9B012B00D83FE158
:103C000068226B469B1800229B5E602213936B46D2
:103C10009B1800229B5E1993179B002B00D1FDE09F
:103C20000A9B002B00D1F9E0002350221293059348
:103C30000F936B469B181B88C2461B936B469B8950
:103C40001593199A159994460F9B1B9A63448C46B9
:103C50005343013A634419B29B181BB298468B46F2
:103C60000B1C414500DD43461BB20E935B46C3452A
:103C700000DA43461AB211920E9A9B1A9AB21BB2FC
:103C80001D92DA0FD318189A5B1094461C930F9A62
:103C9000159B6344944663441BB21693129B08938E
:103CA000002307935346DA46C34698460BE0059B2C
:103CB0000A9A5B00DBB20593079B0133DBB20793E3
:103CC0009A4200D89CE0089B5A1CD2B208925B072B
:103CD00006D10B9A0D99531C8A5C9BB205920B93EB
:103CE0006B461B7D5BB2002BE1DA0C9B012B03D1F1
:103CF000149C012C00D198E0079A139B94466344CE
:103D00001F00109A0C9B94465F4367449C463FB249
:103D1000BC44634606936745C9DA52465B469B1A24
:103D2000DA179B18534009935A4B994609E0119BA7
:103D30000E9A934200DBEDE10137069B3FB29F42B2
:103D4000B5DADA45F3D1002255463C000026099B3E
:103D5000039704929BB202934346B8461F0025E0A6
:103D6000002A41D0002D10DB002C0EDB4A4B1B88B3
:103D70009D420ADA494909888C4206DA63435B1995
:103D80005B009F520122464B1A70029BF21A93B2BB
:103D900016B2120405D5049A013D944663442DB22F
:103DA0001EB20134039B24B2A34219DB4B461A68AE
:103DB000DA45D5D1002A1DD0002CE6DB002DE4DB4E
:103DC000354B1B889C42E0DA344909888D42DCDAA5
:103DD0006B431B195B009F520123314A1370D4E7D8
:103DE0003B0047469846A7E73A0021002800FFF726
:103DF00075FCCAE73A0029002000FFF76FFCC4E712
:103E00009446129B179A6344DBB212930F9BC246EF
:103E10000133DBB20F939A4200D912E71FB03CBCCA
:103E200090469946A246AB46F0BD109A1A9B94461E
:103E300063441800079B9C46164B60441B6800B205
:103E4000002B18D0002800DA31E7169D002D00DA8B
:103E50002DE7114A1288904200DB28E70F490988B4
:103E60008D4200DB23E741466A4312185200D152CB
:103E70000B4B1C701BE742461699FFF72FFC16E709
:103E8000149B012B00D9BBE6002319931393C3E6BF
:103E90002012002024120020761400207814002024
:103EA0006A120020A04B01001B889842B6DA9F4B93
:103EB00003981B889842B1DA0C9CA44663006344C3
:103EC0008C465B006344002BA8DD149BD9008C4614
:103ED00060440F910028A1DDAF2A00D902E16B46B2
:103EE0001B8E40210D936B465B181B8819000E93A7
:103EF00093009A188E4B0891D3184A1D92B20B92D8
:103F0000149A0A9393B205931300013B0991069307
:103F10000A9B08271B7899466B4624229B5E0C9AC5
:103F20009C4604936B466244150020229B5E0793D7
:103F3000002302934B46DB0766D50C9B012B03D174
:103F4000149C012C00D185E0059B029E049C5E43DD
:103F5000039B9C466644B3B236B2AC4212DA069A70
:103F6000BB46944663441BB21F0043462200200018
:103F70000134009331003B0024B2FFF75FFDAC42F7
:103F8000F3DB5F46029B013F01335BB202934B467A
:103F9000FFB25B089946002FCCD10D9A0A9B94463C
:103FA00001330A93099B0B9A63449BB20993089BC4
:103FB00001339BB208939A42AAD1D04500D12DE794
:103FC0000C9B012B00D195E00D9B9C469C000E9B09
:103FD00064449C466B4664449D8F0C9B24B21E191E
:103FE000A64200DC1AE75746039B013BED182DB2B1
:103FF0002200200001342B000399009724B2FFF720
:104000001DFDB442F4DB09E7D045BBD00C9B012B6E
:1040100002D1149C012C3DD0059B029E049C5E4362
:10402000039B9C466644B3B236B2AC42AADA069A07
:10403000BB46944663441BB21F0053462200200037
:104040000134009331003B0024B2FFF7F7FCAC428F
:10405000F3DB96E7039A029B9446634419B2354B0F
:104060001A68002A39D0079E002E8BDB002989DBD5
:104070002D4B1B889E4285DA2C480088814200DB4C
:1040800080E7B4464B43414663445B0099522A4B58
:104090001C7077E7039A029B9446634419B2254B40
:1040A0001A68002A21D0079E002E00DA6AE700294C
:1040B00000DA67E71C4B1B889E4200DB62E71B4867
:1040C0000088814200DB5DE7B4464B4351466344C0
:1040D0005B009952184B1C7054E742460798FFF753
:1040E000FDFA4FE70132D2B2F9E652460798FFF7E0
:1040F000F5FA47E7149B012B00D065E76B46524663
:1041000003992C20185ECB1D00921BB20200FFF712
:1041100095FC83E61D9B3D000493119B1C9E03931D
:104120000E9C002316E6C04676140020781400206A
:1041300090910010241200206A120020024B188077
:10414000024B19807047C0466212002064120020A2
:104150000FB4F0B5DE46454657464E46E0B589B049
:10416000794D12AA02CA2800079200F0DDFE28004D
:1041700000F090FE00282ED0744B2E189946744BF8
:10418000B0469A46734B04959B46049B1A784B465F
:104190001B68002B3AD00A2A27D00D2A16D01E7A87
:1041A000B24213D3997A914210D35968961B8C4628
:1041B000F6006644B178002900D078E0664C674F7D
:1041C00033793A78534322889B182380049B013328
:1041D00004939845D9D109B03CBC90469946A24673
:1041E000AB46F0BC08BC04B0184700225A4C5C49EE
:1041F00022805C4A1B7B127853430A889B180B80F1
:10420000049B013304939845BFD1E4E70A2A26D0E2
:104210000D2ADBD04E49504C097800292FD10023BC
:10422000E05E4F4B4D4F0021595E4E4B3E781B7860
:104230004D4D2D880293474B01961B8800932B0010
:10424000FFF7AEFC3B785A009B1822885B009B1856
:104250002380049B01330493984596D1BBE73E4CE1
:104260003F4A23803F4B11881B78DB005B1813808B
:10427000049B01330493984500D086E7ABE7374FA2
:104280000021605E3E78394D7100891949002D8802
:104290000918A9422BDD324823800588314BAC46F2
:1042A0001B78D900614409B201800020C0E7F07892
:1042B000002800D182E75046007800281DD1274F02
:1042C000254C3B780593274B1B789C460023E05EEA
:1042D000234B0021595E6546234B1B880295059DA3
:1042E00001955D462D880095FFF75AFC68E71C4B49
:1042F0000021595E1B4B1B789AE7174C174F00257E
:10430000605F3D78059505257557AC46059D614470
:104310006943164D09182D88A9420EDD0021218020
:10432000104909788C46197B634659430C4B188811
:10433000091809B200201980CDE70A4B1B789C466A
:10434000074B0021595EC6E77C1400202012002094
:104350007C05002066120020621200207A050020F1
:10436000641200207B0500207805002076140020D0
:10437000054B064A1B88108810B558434000FEF7CD
:104380006BFB034B186010BD7614002078140020DE
:104390002412002000B5094B83B0196800290BD006
:1043A000074B084A1B881288002000910021FFF764
:1043B00099F80022044B1A7003B000BD24120020AB
:1043C00078140020761400206A12002010B50B49E2
:1043D0000B48FEF7C7FD03210420FCF7BBF80321BF
:1043E0000520FCF7B7F8002201210420FCF7CAF8E9
:1043F000002201210520FCF7C5F810BDA0860100B0
:10440000600500200F22012330B50C4D87B06A44AF
:1044100010705721009328001724FEF7CDFD0023CC
:104420006C4422005721009328000133FEF730FE30
:104430000120FCF7C3FD207807B030BD60050020E7
:1044400030B50F220E25012385B00B4C6A446D4414
:1044500010702970200000935721FEF7ADFD002356
:104460002A005721009320000133FEF7A5FD01200B
:10447000FCF7A4FD05B030BD600500200E2204232A
:1044800030B585B00C4D6A441370033B009357213F
:1044900028000F24FEF790FD00236C4422005721D2
:1044A000009328000133FEF7F3FD0120FCF786FDA1
:1044B000207805B030BDC046600500200E220623DE
:1044C00030B585B00C4D6A441370053B00935721FD
:1044D00028000F24FEF770FD00236C4422005721B2
:1044E000009328000133FEF7D3FD0120FCF766FDA1
:1044F000207805B030BDC0466005002010B551439E
:1045000000F03EF8041E0ED00300083B5A68032357
:104510009A43043A242A15D80300132A05D8002206
:104520001A605A609A60200010BD002108330160B3
:1045300041601B2AF3D98160C160242A06D00300A0
:104540001033ECE70021FEF7A1FAECE7030001616C
:1045500018334161E3E7C04610B5034B010018680A
:1045600000F00EF810BDC0468005002010B5034BCA
:104570000100186800F034FD10BDC0468005002021
:10458000F0B557464546DE464E46E0B50D000B35C4
:1045900083B00700162D22D8102900D9BBE000F007
:1045A000B5FA102518230220D14EF3181A005C68C2
:1045B000083A944200D1BEE0032362689A43130094
:1045C000E268A168CA6091600122E3185968380066
:1045D0000A435A6000F09CFA200008309EE007234E
:1045E0009D4300D597E0A94200D994E000F08EFAEF
:1045F000F823FF339D4200D8ADE1680A00D194E072
:10460000042800D980E138239846A809804439302D
:10461000C100B74E71180839CC68A14218D00323E5
:1046200062689A431300521B0F2A00DD36E1002A0C
:10463000C6DA03239C4608E06246636893435A1B2C
:104640000F2A00DD2AE1002ABADAE468A142F3D198
:10465000320034690832944200D177E00323616864
:10466000994389460B00491B0F2900DD77E17261F0
:1046700032610029A8DA9F4A914500D910E1DA0891
:10468000012391108B40D200716892190B439168FD
:104690007360E260A1609460CC600121821091405F
:1046A000994259D80B4205D1032290434900043066
:1046B0000B42FBD003239846C3009946B144CC4635
:1046C00082466346DC68A44507D129E1002A00DB65
:1046D00032E1E468A44500D122E142466368934395
:1046E0005A1B0F2AF2DD01208046611905436560DF
:1046F000A068E5680836C560A8604046F160B16012
:1047000010434860CE608E603800E25000F000FA3E
:104710002000083002E00C2300203B6003B03CBCCA
:1047200090469946A246AB46F0BD80213F238900C2
:10473000402098466DE7DC680230A34200D03BE79A
:10474000320034690832944200D087E7012173684F
:10475000821091409942A5D90323B46862689A43B4
:104760009046AA4203D3531B0F2B00DD88E02300A1
:104770004344614A0193614B93469A4612681B6811
:10478000EB18013200D139E15D4A944663441B0BBA
:104790001B0300930099380000F06AFB0300814678
:1047A000013300D1F6E0019B834200D9F0E051468D
:1047B0004968009B8C46514663444B6001991A003E
:1047C000494500D14FE15B461B68013300D154E1FC
:1047D0004B4601995B1A9A1853465A6007234A467A
:1047E0001A40019200D113E108214B4689469B1AD9
:1047F00099440099434B49449B1A5B1A1B051B0DB6
:104800000091380019009B4600F032FB431C00D198
:104810004FE14B46C01A03005B4400935346524697
:104820005B6801215B4453604A464846B260009A87
:104830000A434260B44200D123E142460F2A00D825
:1048400021E107200C3A82436068014005201143B2
:104850006160A118486088600F2A00D934E14A4697
:104860004C4652685146C96A994201D25146CB62C0
:104870005146096B994200D38EE051460B638BE0A1
:104880000122290013431143651961603800B560A6
:104890006B6000F03DF9200008303FE74046D7E666
:1048A0005A0A042A6ED9142A00D9C1E011005C32D8
:1048B0005B31D20008235B429C46B21894446346A5
:1048C0009A6803239846944500D19AE0434651687C
:1048D0009943494502D992689445F7D1D3689C46DB
:1048E00073686146A260E1608C60D460D5E6C04622
:1048F000B8090020FF010000B00900206C10002062
:104900000F10000008100000142852D9542800D9B4
:1049100096E06E239846280B80446F30C10078E6FD
:1049200008239B46073BDC449B46DA4443465246F9
:10493000134200D0C5E64CE00122E3185968380064
:104940000A435A60E368A268D3609A6000F0E0F816
:1049500020000830E2E62B00E808083324E60123B3
:1049600060191D43656070613061C26082601A0029
:104970004B460A4342603800E15000F0C9F820007D
:104980000830CBE69A09110039323831D20091E76C
:10499000B44260D0B468626803239A43531BAA42AE
:1049A00002D30F2B00DD6BE7380000F0B1F80020D8
:1049B000B4E65B23984680445C30C10029E60823B6
:1049C0005B429C46E1444B469B6801384B4500D016
:1049D00097E043460342F2D173688B43736049000A
:1049E000994200D9B8E6002904D1B5E604229446DC
:1049F0004900E2440B42F9D050465DE61033009383
:104A0000C8E68910023B8B4071680B43736068E70E
:104A1000009B38004B441B055B421B0D19009B4655
:104A200000F026FA431C00D0F3E600239B46F5E68F
:104A3000542A2AD81A0B11006F326E31D20039E78E
:104A4000AA235B0098422AD8DD3B9846E80B8044B5
:104A50007830C100DDE553465B68009A9C465346BA
:104A600062445A60AFE6090500D0ACE6009AB4682B
:104A7000424401310A436260F4E65B464A461A60EA
:104A8000ACE64C46EEE641608EE7AA2149008A4238
:104A900024D8DA0B110078327731D2000AE71A4BAA
:104AA000984224D87C239846A80C80447D30C100CD
:104AB000AFE5009A019B94464A46083B63449B1A23
:104AC000009300239B46A9E621003800083100F03E
:104AD00087FA5346B4685B686268C3E60A498A424B
:104AE0000BD89A0C11007D327C31D200E2E6FE2117
:104AF0007E2389007F2098468BE5FE227E2192004E
:104B0000D8E673686BE7C046540500007047C0469E
:104B10007047C046F0B5DE464E4645465746E0B5BE
:104B2000804685B00E1E934600D1C6E05C460B342D
:104B3000FFF7ECFF162C68D810241023A34568D883
:104B40003700083F796803220D00954378190197D3
:104B500081469D4200DB94E0C44A4068926803901D
:104B600002924A4500D1BCE0012292460200504622
:104B700082439446CC4462465268024200D092E09E
:104B80000322039890432A1894469A4200DB18E1C6
:104B900052460A420ED103213A68BA1A9246526826
:104BA0008A4310184119019199423FDAAA180192DB
:104BB0009A4241DA59464046FFF7E2FC8146002816
:104BC0001FD07B68BC4601930123019902009943E1
:104BD0000B00083A6344934200D1FCE02A1F242AC8
:104BE00000D9FFE031680300132A00D9C4E0320085
:104BF00019605168596092689A603100404600F02F
:104C0000EFF94046FFF784FF08E007239C43231E8B
:104C100094DA0C234246136000239946484605B0B7
:104C20003CBC90469946A246AB46F0BD4B464A4630
:104C3000DB689268D3609A60534652465746DB68F9
:104C400092680837D3609A60019B2A1F53449946A3
:104C5000242A00D99AE031683B00132A09D9534627
:104C600099607168D9601B2A00D9CAE0B168103315
:104C7000083619607268019D5A60B2683E00574656
:104C80009A6001237A68281B1A400F281AD82A43F1
:104C90007A604A46526813434A4653604046FFF7DB
:104CA00037FFB146BAE7084200D083E703213A68EC
:104CB000BA1A924652688A4378E71100FFF760FCFF
:104CC0008146ABE7391914434A4618437C60486073
:104CD0005268083113434A464046536000F080F959
:104CE000DCE70322039890432A1891461022944649
:104CF000A444E14552DACA0700D55BE739687A1A5D
:104D00000321924652688A431018411901918C453B
:104D100000DD4BE753465246DB689268D3609A60E9
:104D200008232A1F53449946242A00D986E0316873
:104D3000132A09D9534699607168D9601B2A00D992
:104D400081E0B16810330836196072685A60B26841
:104D50009A6053461919454B40469960019B1A1BAE
:104D600001231A434A605246526813401C4353467B
:104D70005C60FFF7CDFE51E70160716841601B2A5E
:104D800034D8320008330832B16831E731003800D6
:104D900004F0BAF83E00019D574672E70198334B84
:104DA000011999604B461A1B01231A434A60416856
:104DB000B1460B401C43446040460191FFF7A8FEFA
:104DC0002CE74B464A46B946DB689268E144D3601B
:104DD00065469A6055E70322B9465B689343ED1830
:104DE000A9444EE7310004F08FF806E7B16881600E
:104DF000F168C160242A0ED03200103310323169BC
:104E0000F6E6B1681961F1685961242A0DD031695B
:104E1000183310362DE732690100026132007069E3
:104E2000183248611833B169E2E632699A61524634
:104E300071692033D161B16918361AE73100180061
:104E400004F062F885E7B1681961F1685961242AB4
:104E500003D031691833103676E732699A615246C9
:104E600071692033D161B16918366DE7B809002046
:104E7000002370B5064C050008002360FCF7C4FE53
:104E8000431C00D070BD2368002BFBD02B60F9E7DA
:104E9000E014002010B5830727D00378002B26D01C
:104EA0000300032102E01A78002A1CD001330B42D0
:104EB000F9D119680F4A104C8A188A4322420FD13F
:104EC000043319680B4A8A188A43224208D10433F2
:104ED0001968084A8A188A432242F1D000E0013357
:104EE0001A78002AFBD1181A10BD0300E1E7002050
:104EF000FAE7C046FFFEFEFE8080808000B59BB0D2
:104F00000091049106490591029106490391694671
:104F100000F054F90023009A13701BB000BDC04686
:104F2000FFFFFF7F0802FFFF10B504001300034AD4
:104F300010680A002100FFF7E1FF10BD8005002086
:104F4000F8B50C000600FFF7E1FD204FBB685D6877
:104F500003239D431E4B2C1B9C466444240B1D4B7A
:104F6000013C24039C4207DD00213000FFF780FF55
:104F7000BB685B19984204D03000FFF7C9FD0020E0
:104F8000F8BD61423000FFF773FF431C0DD00122D2
:104F9000BB682D1B15435D600F4B30001A68141B56
:104FA0001C60FFF7B5FD0120EAE700213000FFF7A4
:104FB0005FFFBA68831A0F2BDEDD08490968401AC3
:104FC0000549086001210B435360D5E7B80900206B
:104FD000EF0F0000FF0F000070100020B00900204C
:104FE000F0B5D6464F4646460500C0B50C1E5CD00F
:104FF000FFF78CFD210008394F6801243B00032294
:10500000A343C81846689643B146664EB2688242CA
:1050100000D175E04A464260821894463C4229D14C
:105020000F68C91B8A68DB199046624657680822D8
:1050300094462740B444BA46E04556D0CA689446E0
:1050400042466746D7606246474697605246002A06
:1050500013D101224B44CF18BC468468524F1A43E7
:10506000BC4200D17AE0C068E06084604A60624679
:10507000136005E057682742EBD01C434C60036087
:105080004A4A934216D8DB08FF3A9810FF3A82400A
:105090007068DB00024372609E19B368CE608B605B
:1050A000B160D9602800FFF733FD1CBC90469946DB
:1050B000A246F0BD5C0A042C3AD89C092000393481
:1050C0003830E4003419083CA268032794423ED0EB
:1050D0005068B843984202D992689442F8D1D46893
:1050E000CC608A60A160D160DCE7002F55D1C26836
:1050F0004B4480681C43C26090604C60CB50D1E749
:105100004B443C4206D10A68891A88689B18CA68D1
:10511000C260906001221A434A60254AB160126859
:105120009A42BFD8234B28001968FFF709FFB9E757
:10513000142C07D9542C19D81C0B20006F346E3056
:10514000E400BFE720005C345B30E400BAE70123F1
:1051500080108340706803437360C1E7E160A16021
:105160004A606246CC608C6013609BE7AA204000D6
:10517000844205D8DC0B200078347730E400A1E7C6
:105180000D48844205D89C0C20007D347C30E4001E
:1051900098E7FE247E20A40094E71C434C60036043
:1051A00080E7C046B8090020C0090020FF010000C8
:1051B000B40900206C10002054050000F0B5DE4654
:1051C00057464E464546E0B5C1B00C00089193469F
:1051D00010930D9002F03CFB036818001893FFF742
:1051E00059FE1690A3891B0605D523690693002B4B
:1051F00001D100F0BFFF30AB23930023002425939F
:10520000249313930023149315940023DA4630AEAD
:10521000179319930A9353461B78002B50D0252BD4
:1052200001D100F06CFE544602E0252B3BD02C004F
:105230006378651C002BF8D15346EF1A40D05346D3
:105240003360259B7760DB192593249B06930133FC
:105250002493072B2BDC08360A9B9C46BC446346F0
:105260000A936378002B2BD06B1C9A46002314AA58
:10527000D377012252420992002200210B92103270
:10528000944630328846002000272024914651461B
:105290006B7801311A00203A582A00D971E2B84DD2
:1052A0009200AA5897465346EF1ADDD0C7E723AAC3
:1052B00008990D9802F0F0FF00280AD130AECBE734
:1052C000259B0693002B04D023AA08990D9802F081
:1052D000E3FF089B9B895B0601D501F0B0F90A98B2
:1052E00041B03CBC90469946A246AB46F0BD8A46CA
:1052F00041469B46002901D001F040F9A14B17938C
:10530000BB0600D4E2E20723109C07349C43220032
:1053100018CA0E930F9410920223FA071AD50E9909
:105320000F9A0800104315D030211CAA117059465D
:105330001F4351700EE09B468A46BB0600D484E2B0
:105340000723109C07349C43220018CA0E930F9425
:10535000012310920022904614A9CA770998421C92
:1053600000D1C2E280223900914307910E990F9A31
:105370000C00144300D0B7E2002801D000F091FCEB
:10538000002B00D0DEE1012003003B400C9330AD48
:10539000002B01D000F0D4FD0C9B099A0693934298
:1053A00000DA0692002312934346002B78D0069B26
:1053B0000133069374E09B460023109C14AA20CC72
:1053C0008A46D377002D01D100F070FF099A531C53
:1053D00001D100F09BFE0021280003F06DFD421B6F
:1053E000002801D101F0ADF814ABDB7F0C92984698
:1053F000D343DB171A4000230692109407970993B2
:105400001293D1E727430B7843E7109C5E4A08CC00
:105410008A460E9300230F9302331F431CAB1A805E
:105420007822584B109417939346022392E79B4699
:105430008A46BB0600D41CE20723109C07349C4319
:10544000220018CA0E930F941092002382E78A4616
:105450004146002901D001F09DF8109A08CA109227
:10546000BA0601D500F039FEFA0601D500F091FE2A
:105470007A0601D400F08DFE0A9A1A80CBE6109CC1
:1054800026AD04CC9B462A70002214ABDA770123A8
:105490008A46109406930C9300230797099312935E
:1054A0000223079A1A40914602D0069B02330693C4
:1054B0008423079A259C1A40904605D10B9B069A97
:1054C0009F1A002F00DD5FE314ABDB7F002B10D0B1
:1054D00014AA1F2394466344336001237360249B02
:1054E00001341193013325942493072B00DD83E3CA
:1054F00008364B46002B0DD01CAB33600223736083
:10550000249B02341193013325942493072B00DD4F
:105510007EE308364346802B00D1AEE2099B0C9A0D
:105520009F1A002F00DDECE2079BDB0500D53DE272
:105530000C9B35609C467360249B64440993013343
:1055400025942493072B78DC0836079B5B0705D549
:105550000B9B069A9F1A002F00DD65E30B9B069AB2
:10556000934200DA13000A9A94469C4463460A93D5
:10557000002C00D0FEE2002330AE24934BE6C04660
:10558000989600104098001030780000082290464D
:10559000249B139A01345F1CB044012A01DC00F003
:1055A0003EFC01233560736025942497072F01DDAD
:1055B00000F0B7FC4346189A01371A60169B424622
:1055C0009C466444536025942497072F01DD00F026
:1055D00099FC08239C46E044464614981599139A72
:1055E0007B1C013A9B460993914600230022083612
:1055F000FCF7ACFE002801D000F023FC42464946EF
:10560000099B01354C441560516025942493072B68
:1056100001DD00F0C9FDBB1C099343461033B046C1
:105620001E0042461FAB1360199B9C465360099BAA
:10563000644425942493072B87DD23AA08990D98A9
:1056400002F02AFE002800D043E6259C30AE7CE71D
:1056500008231F430B781CE68A4641469B460029D7
:1056600001D000F083FF0723109C07349C432200E5
:1056700018CA1D0010920122149315946400640846
:105680005242C74B28002100FCF783FE002801D0BE
:1056900000F060FC0122C24B524228002100FCF7BE
:1056A00063FE002801D000F055FC149815990022E3
:1056B0000023FCF753FE002801D000F0A1FE14AB3C
:1056C000DB7F98465B46472B01DC00F089FEB54D39
:1056D00080239F437D3B06930C93002307970993F8
:1056E000129361E68A4641469B46002901D000F0AC
:1056F00041FF10231F43109ABB0600D4E1E30723A8
:1057000007329A4301339C4694446346109353688E
:1057100012680F930E92002B00DAE2E314ABDB7FEA
:105720009846099B013300D10EE180239F430E9AD6
:105730000F9B11000797194300D004E1099B002B30
:1057400000D0D3E2002330AD09930C9324E600256A
:10575000303BB34682461A002E000800B3009B1966
:105760005B00D618037801311A00303A0800092A84
:10577000F4D91A00203A0B9650465E46582A00D8B3
:105780008DE58A4641469B46002901D000F006FF80
:105790005B46002B00D193E5002226AD2B7014ABA5
:1057A000DA77012306930C9376E680231F430B7868
:1057B0006FE54B1C9B460B782A2B01D100F096FF1E
:1057C0001A000021303A0991DA465946092A00D9CF
:1057D00060E51100B34652468246002083001B1844
:1057E0005B0058181378561C19003039320009290B
:1057F000F4D90990310050465E464BE50B780422FF
:10580000174346E501220B7890462B2041E5109A7C
:105810000B7820CA0B951092002D00DB39E56A4207
:105820000B92ECE701231F430B7832E50B7800283D
:1058300000D02EE50122202090462AE59B46102329
:105840001F438A46BB0600D57AE5109A08CA109213
:10585000FA0602D47A0600D59BB20E9300230F936A
:10586000013377E59B4610231F438A46BB0600D5CC
:10587000E2E5109A08CA1092FA0602D47A0600D518
:105880009BB20E9300230F9364E54B461F430B78A6
:10589000FFE48A4641469B46002900D12BE714AB22
:1058A000D87728E70B786C2B01D100F0FAFC624620
:1058B0001743EEE48A4641469B46002901D000F09A
:1058C00051FE394B1793BB0600D51CE5109A08CA48
:1058D0001092FA0600D5EFE27A0600D4ECE29BB211
:1058E0000E9300230F9317E5079F012B2CD0022B5B
:1058F00000D1DCE10E980F99072330AAB9469C46E7
:105900000696170000E02F0063464A070340C608CA
:10591000CC0832437D1E303310002B70210022430F
:10592000F1D13A004F46069E0E900F91F90731D5FE
:10593000302B2FD03023023A137030AB9B1A0C93CC
:105940000797150028E5079F0E9B0F9C002C02D19E
:10595000092B00D8CBE130ADB1462E000E9C0F9D37
:1059600001E004000D000A22002320002900FCF7BA
:105970007DFA013E3032327000230A2220002900D5
:10598000FCF774FA002DECD1092CEAD80E940F958F
:1059900035004E4630AB5B1B0C930797FCE4C046CA
:1059A000FFFFEF7F209800102C9800105B46652BBE
:1059B00000DCEBE51498159900220023FCF7C6FCE7
:1059C000002800D1A6E1D14B01343360012373607C
:1059D000249B2594099301332493072B01DD00F0C8
:1059E0003AFC08361D9B139A934203DB079BDB07A7
:1059F00000D488E3189B259A3360169B9C467360FD
:105A0000249B624409930133140025922493072BAD
:105A100001DD00F039FC0836139B5F1E002F00DC0F
:105A200093E5BB4A249B1192102F01DC00F005FC8A
:105A300094461021614489463200210010250D9CB6
:105A4000089E05E00832103F102F01DC00F077FCC3
:105A50004846103101331060556025912493072B7F
:105A6000F0DD23AA3100200002F016FC002800D04F
:105A70002FE42599249B30AAE5E70B9B069A9F1AF1
:105A8000002F00DC4AE5A24A249B1192102F26DD4C
:105A900094461021102261449046894622000D9CB4
:105AA00003E0103F0836102F18DD494631604146AB
:105AB00010320133716025922493072BF1DD23AA64
:105AC0000899200002F0E8FB002801D0FFF701FC54
:105AD000103F259A249B30AE102FE6DC1400119A5B
