:100387001200037F007EF812023A7FE87E03120311
:10039700F57FE87E031203F57FE07E0712023A7FBE
:1003A700E87E031203F57FE87E031203F57F1F7EC5
:1003B7000012023A7FE87E031203F57FE87E0312FC
:0403C70003F580BFFB
:1003F500E4FDFCC3ED9FEE6480F8EC648098501535
:10040500E4FBFA0BBB00010ABA03F8BBE8F50DBD26
:0504150000010C80DE77
:01041A0022BF
:10041B00E4FDFCC3ED9FEE6480F8EC64809850150E
:10042B00E4FBFA0BBB00010AEB64014A70F50DBD4E
:05043B0000010C80DE51
:010440002299
:030000000201AE4C
:0C01AE00787FE4F6D8FD7581070201F5AA
:0A04B8004200000000420002FFFFB6
:10047B007E80EE60135F6004D2958002C295C297B6
:08048B00D297EEC313FE80EAD4
:010493002246
:0A04C300C292C29312047BD293226E
:0504A9001204C3E4FF92
:0A04AE00D292C29312047BD2932273
:10049400AD07AC06C293D292ECFF12047BAF0512F7
:0504A400047BD293224D
:0804D6001204C3AF050204AEDD
:0904CD0090000BA3E0FF0204C340
:08023A00900011EEF0A3EFF0BB
:10024200900005E024FFFB900004E034FFFA9000E8
:1002520007E024FFFE900006E034FF90001BF0A3AD
:10026200CEF0E4FDFCFFFE12033AE4900013F0A38B
:10027200F0900004E0FEA3E0FFC3900014E09F9022
:100282000013E09E5032E4FBFAD3900007E09B900B
:100292000006E09A4012900011E0FEA3E0FF120473
:1002A200940BBB00010A80E1900014E004F070C1DD
:0802B200900013E004F080B994
:0102BA002221
:1003CB00AB07AA068D828C83C006C007AE83AF82B3
:1003DB0090001BEEF0A3EFF0D007D00612033A907B
:0A03EB000000E0FEA3E0FF0204940E
:10046000D2B37F327E001203F5C2B37F327E001218
:0B04700003F5D2B37F327E000203F5DB
:100003001204607FCF1204A97FD91204AE7F30128D
:1000130004AE7FED1204C37F641204AE7F031204A7
:10002300AE7F121204AE7F811204AE7FE81204C3C6
:100033007F851204AE7F101204AE7F7A1204AE7F66
:10004300CB1204C37F391204AE7F2C1204AEE4FF3B
:100053001204AE7F341204AE7F021204AE7FF71295
:1000630004C37F201204AE7FEA1204A91204AE7FF8
:10007300C01204C37F1B1204AE7FC11204C37F12DC
:100083001204AE7FC51204C37F081204AE7F26128A
:1000930004AE7FC71204C37FB71204AE7F361204C7
:1000A300C37F081204AE7F3A1204C37F551204AE15
:1000B3007FB11204A97F1A1204AE7FB61204C37F64
:1000C3000A1204AE7FA21204AE7FF21204A97F26A5
:1000D3001204C37F011204AE7FE01204C37F0F1228
:1000E30004AE7F1D1204AE7F1A1204AE7F0A1204FF
:1000F300AE7F0D1204AE7F071204AE7F491204AE29
:100103007F661204AE7F3B1204AE7F071204AE7FFC
:10011300111204AE7F011204AE7F091204AE7F05F3
:100123001204AE1F1204AE7FE11204A97F18120459
:10013300AE7F1D1204AE7F021204AE7F0F1204AE17
:100143007F041204AE7F361204AE7F131204AE7F17
:100153004C1204AE7F071204AE7F131204AE7F0F5E
:100163001204AE7F2E1204AE0F1204AE7F051204EA
:10017300AE7F2B1204A91204AE0F1204AE7F3F12FE
:1001830004AE7F2A1204A91204AE1204AE7FEF124A
:1001930004AE7F111204C37F787E001203F57F291A
:0B01A3001204C3E4FF1202BBD2B22220
:10033A00900015EEF0A3EFF090000DA3E0FF120479
:10034A00C3900015E0FF1204AEA3E0FF1204AEEA68
:10035A00FF1204AEAF031204AE90000FA3E0FF1227
:10036A0004C3ECFF1204AEAF051204AE90001BE00A
:0D037A00FF1204AEA3E0FF1204AE0204CD9A
:10044100AB07AA068D828C83C006C007AE83AF823C
:0F04510090001BEEF0A3EFF0D007D00602033AA5
:1002BB0090000DE4F0A3742AF0A3E4F0A3742BF0E8
:1002CB0090000BE4F0A3742CF0EF14601F1460315A
:1002DB0014604324037057900004E4F0A374F0F00F
:1002EB00A37401F0A37440F07D08803D900004746A
:1002FB0001F0A37440F0A3E4F0A374F0F07D6880E8
:10030B0028900004E4F0A374F0F0A37401F0A3743C
:10031B0040F07DC880139000047401F0A37440F08A
:0F032B00A3E4F0A374F0F07DA87F361204D6226D
:1001BA00020387E493A3F8E493A34003F68001F2D1
:1001CA0008DFF48029E493A3F85407240CC8C33346
:1001DA00C4540F4420C8834004F456800146F6DF15
:1001EA00E4800B01020408102040809004B8E47EE9
:1001FA00019360BCA3FF543F30E509541FFEE4930A
:10020A00A360010ECF54C025E060A840B8E493A3D0
:10021A00FAE493A3F8E493A3C8C582C8CAC583CAFB
:10022A00F0A3C8C582C8CAC583CADFE9DEE780BEB3
:0104C2000039
:00000001FF
